:020000040002F8
:1060000088C300207D640200D597020087640200E7
:10601000A1970200F97A0200FDB102000000000021
:10602000000000000000000000000000DD6302002E
:10603000057C0200000000002164020051A602005D
:10604000319C02009764020045AD02009764020093
:1060500015A2020097640200A5830200859E02003B
:10606000976402009764020097640200899C020012
:10607000976402009764020097640200976402002C
:1060800035B20200999C02009764020097640200F6
:10609000976402009764020079A2020097640200EC
:1060A000976402009764020097640200F5AC020056
:1060B00097640200976402000000000000000000E6
:1060C00097640200976402009764020025A2020010
:1060D000319D0200F5860200976402000000000076
:1060E00000000000000000000000000000000000B0
:1060F00000000000000000000000000000000000A0
:10610000000000000000000000000000000000008F
:10611000000000000000000000000000000000007F
:10612000000000000000000000000000000000006F
:10613000000000000000000000000000000000005F
:10614000000000000000000000000000000000004F
:10615000000000000000000000000000000000003F
:10616000000000000000000000000000000000002F
:10617000000000000000000000000000000000001F
:10618000000000000000000000000000000000000F
:1061900000000000000000000000000000000000FF
:1061A00000000000000000000000000000000000EF
:1061B00000000000000000000000000000000000DF
:1061C00000000000000000000000000000000000CF
:1061D00000000000000000000000000000000000BF
:1061E00000000000000000000000000000000000AF
:1061F000000000000000000000000000000000009F
:10620000DFF80CD000F074FD00480047AD18030023
:1062100088C3002000B583B002900091019244F23F
:10622000010071466A4607F0D3F903B000BD0000D3
:1062300030B450E8012F93B2C48923448489A34227
:1062400028BF1B1B0489A34202BFBFF32F8F00206E
:1062500007E0C3EA020340E80134002CE9D14FF023
:1062600001000A6030BC704750E8012FC2EA0242C8
:1062700040E801210029F7D1704730B450E8022FDF
:106280001FFAA2F3C488A34202BFBFF32F8F0020DE
:106290000DE0C48923448489A34228BF1B1BC2EAA2
:1062A000034340E80234002CE8D14FF001000A60BB
:1062B00030BC704750E8022FC2EA224240E8022177
:1062C0000029F7D17047034653E8022FD988B2EB73
:1062D000324F4FF0000017BF92B241EA014142EA4B
:1062E000014104E05A68B2EB324F08BF012043E895
:1062F0000212002AE8D1704730B4044654E8000F77
:106300000D4644E80053002BF8D1156030BC7047AF
:1063100030B4044654E8000F40EA010544E8005355
:10632000002BF7D1156030BC704730B4044654E8F8
:10633000000F00EA010544E80053002BF7D1156077
:1063400030BC704730B4044654E8000F80EA0105C1
:1063500044E80053002BF7D1156030BC704730B4CF
:10636000044654E8000F00EB010544E80053002BFD
:10637000F7D1156030BC704730B4044654E8000FC4
:10638000A0EB010544E80053002BF7D1156030BCA9
:10639000704770B404464FF0000054E8006F0D6879
:1063A000AE4207BF44E80023012044E800630E60CA
:1063B000002B1CBF0020F0E770BC704730B40446CF
:1063C00054E8000F88422CBF451A054644E80053A4
:1063D000002BF5D1156030BC70470000264B1968C2
:1063E0000868B0E8F04F80F30988BFF36F8F4FF073
:1063F000000080F311887047000000000748006823
:1064000080F3088862B661B6BFF34F8FBFF36F8F1A
:106410004FF4F07080F3118800DF0000006002008C
:10642000EFF30980BFF36F8F134B1A681EF0100F44
:1064300008BF20ED108A20E9F04F106008B44FF03B
:10644000400080F31188BFF34F8FBFF36F8F13F0BD
:10645000FDFA4FF0000080F3118808BC1968086845
:10646000B0E8F04F1EF0100F08BFB0EC108A80F3B8
:106470000988BFF36F8F7047342C0020064880478F
:1064800006480047FEE7FEE7FEE7FEE7FEE7FEE719
:10649000FEE7FEE7FEE7FEE77DA6020001620200DE
:1064A0002DE9F05F0546002092469B468846064649
:1064B000814640241BE0284641464746224600F0DC
:1064C0002FF853465A46C01A914110D31146184628
:1064D000224600F016F82D1A67EB01084F462246B7
:1064E0000120002100F00DF817EB00094E41201E9D
:1064F000A4F10104DFDC484631462A464346BDE8A4
:10650000F09F202A04DB203A00FA02F100207047B5
:106510009140C2F1200320FA03F3194390407047E1
:10652000202A04DB203A21FA02F00021704721FAE8
:1065300002F3D040C2F1200291400843194670474F
:106540000048704720B1030010B50446FFF7F8FF7C
:106550000068005D00F0010010BD0000014610B5AC
:1065600009683C22B1FBF2F302FB1313B1FBF2F119
:106570001D480360B1FBF2F302FB1313B1FBF2F110
:1065800018224360B1FBF2F302FB1313B1FBF2F1EB
:1065900083600A1D0723B2FBF3F403FB142282611C
:1065A0008A0040F2B55102F66C32B2FBF1F344338B
:1065B0004361B2FBF1F301FB13218908C1613B295F
:1065C00003D3027D920700D0491C0022074C1346DA
:1065D0000261E25C8A4203D8891A5B1C0361F8E716
:1065E000491CC16010BD00005883002024B1030085
:1065F00040EA01039B0703D009E008C9121F08C045
:10660000042AFAD203E011F8013B00F8013B521EC4
:10661000F9D27047D2B201E000F8012B491EFBD23B
:1066200070470022F6E710B513460A46044619469D
:10663000FFF7F0FF204610BD421C10F8011B002997
:10664000FBD1801A704730B504460020034600E0B5
:106650005B1C934203D2E05CCD5C401BF8D030BDA4
:10666000034611F8012B00F8012B002AF9D1184636
:10667000704700000FB400B58DB010A909900B90C1
:1066800000914FF0FF300A9000200C9005480690D2
:10669000054807906A4609A80F9900F085FA0DB0E1
:1066A0005DF814FBC56B0200E36B02002DE9FF5F90
:1066B0001D464FF0FF3BD5E9014691465F464FF03E
:1066C0000008A9697F1C01988847296A8246884783
:1066D0000028F6D1BAF1FF3F0CD024F4C064002E9C
:1066E00019DD600614D5BAF12B0F09D0BAF12D0FC0
:1066F0000ED103E0584604B0BDE8F09F44F4806436
:10670000A9697F1C01988847761E8246002E02DD0B
:10671000BAF1300F03D0B9F1000F26D032E0A969E9
:10672000761E44F400747F1C019888478246002E30
:1067300005DDBAF1780F06D0BAF1580F03D0B9F1E0
:10674000000F10D01EE0B9F1000F02D0B9F1100F08
:1067500018D1A969761E24F400747F1C019888471B
:106760008246102002E0082000E00A20814609E06D
:1067700008FB0908A969761E44F400747F1C01987F
:1067800088478246002E05DD4946504600F0F8F95C
:106790000028EDDAE96901988847A00502D46FF076
:1067A0000100A8E7E00725D1600613D5600502D5F2
:1067B000C8F1000000E0404629680A1D2A60096807
:1067C000220501D5087015E0220701D5088011E0E7
:1067D00008600FE02868011D29600068210502D5C6
:1067E00080F8008006E0210702D5A0F8008001E0D3
:1067F000C0F8008038467EE72DE9FF5FD2E901A7A7
:106800004FF00008916999461446DDF838B04646C5
:1068100001988847054659EA0B0005D009E0A169AF
:10682000761C019888470546216A28468847002833
:10683000F5D1681C03D05FEACA7005D015E04FF0AF
:10684000FF3004B0BDE8F09F2068011D2160D0F842
:1068500000800AE05FEACA7001D108F8015BA16913
:10686000761C7F1E019888470546002F1ADD681C9C
:1068700018D0B9F1000F0DD0E81705EBD060421128
:1068800020F01F0059F822102A1A012090400142DE
:10689000E0D107E0BBF1000FDCD1216A2846884730
:1068A0000028D7D0E16901988847BBF1000F07D1D4
:1068B000002E05DD5FEACA7002D1002188F80010C1
:1068C000A068B84203DDBBF1000F03D017B16FF031
:1068D0000100B6E73046B4E72DE9FE4F804681EA75
:1068E0000300C00F0C46009021F0004123F000454A
:1068F000B8EB0200A94105D24046214690461C460D
:106900000B46024623F00040104347D0270DC7F343
:106910000A00C3F30A510290401A019040286BDA32
:10692000C3F3130040F4801B0098924620B100236B
:10693000D2EB030A63EB0B0B01985946C0F14002FE
:106940005046FFF7DEFD06460D4650465946019A71
:1069500000F004F910EB08006141002487EA1152AD
:1069600084EAE7731A4340D0009A62B3019A012A7D
:106970004FEA075215DC001B61EB02014FF00042A9
:1069800002EA0752CDE90042001C41F5801132466F
:106990002B4600F046F903B0BDE8F08F4046214693
:1069A000F9E7001B61EB0201001C41F580130018A0
:1069B0005B412018A2F5001747EB030140EAD570B0
:1069C000B6196D4111E06D084FEA360645EAC0750B
:1069D0004FEA0752001B61EB0201001C41F58011D8
:1069E00049084FEA30000019514132462B4603B0A6
:1069F000BDE8F04F00F006B90098012240000023E6
:106A0000D0EB020263EBE073009821464FEAE0749A
:106A1000B8EB000061EB0401E9E783F000435BE7BA
:106A200081F0004158E72DE9F04D81EA030404F0BC
:106A3000004B21F0004514464FF0000A23F00041BE
:106A400050EA050220D054EA01021DD0C5F30A57CE
:106A50000246C5F31303C1F31300C1F30A5640F411
:106A6000801543F48013A7EB0608101BD64608F2E6
:106A7000FD3873EB050002D308F1010801E092181C
:106A80005B41B8F1000F03DA00200146BDE8F08D4C
:106A900000204FF48011064684460EE0171B73EB6E
:106AA000050705D3121B63EB050306434CEA010CF3
:106AB00049084FEA300092185B4150EA0107EDD1D6
:106AC00052EA030012D082EA040083EA0501084377
:106AD00005D0101BAB4106D20122002306E00022A4
:106AE0004FF0004302E06FF0010253101AEB060072
:106AF0004CEB085110EB0A0041EB0B01BDE8F04DE7
:106B000000F080B8C1F30A5210B5C1F3130140F28E
:106B1000FF3341F480119A4201DA002010BD40F2A7
:106B200033439A42A2F2334203DC5242FFF7F8FCAD
:106B300010BD904010BD00F0004230F000400AD07F
:106B4000C10D01F56071C0F3160042EA0151C2089F
:106B5000400711437047002001467047202A06DB9A
:106B6000CB17203A41FA02F043EAE07306E041FA1B
:106B700002F3D040C2F12002914008431946704709
:106B80003A2800D2303820F02002412A01D3A2F165
:106B90003700884201D34FF0FF307047026811443C
:106BA0001378016018467047D16004495161044967
:106BB000116200211161114600F0ACB89D6B02001A
:106BC00049650200426842B1016811F8013B23B1F6
:106BD000521EC0E90012184670470121C160881E8C
:106BE000704742685AB1C368016843B983688B42F1
:106BF00005D0491E521CC0E90012002070474FF01A
:106C0000FF30704710B5141E73F1000408DA401C01
:106C100041F1000192185B411A4301D120F00100BB
:106C200010BD2DE9F04D92469B4611B1B1FA81F2AB
:106C300002E0B0FA80F220329046FFF762FC044690
:106C40000F4640EA0A0041EA0B0153465A46084300
:106C500013D0114653EA010019D0C8F14002504642
:106C6000FFF75EFC05460E46504659464246FFF782
:106C700048FC084305D0012004E020463946BDE821
:106C8000F08D0020054346EAE0762C4337430A980E
:106C90006305E40AA0EB08000022FD0A44EA475419
:106CA0000A3002D500200146E9E7010510196941C3
:106CB000DDE9084500196941BDE8F04DA2E7000093
:106CC00030B5041E71F1000404DB4FF00044404273
:106CD00064EB0101141E73F1000405DB1C464FF048
:106CE0000043524263EB0403994208BF904230BD17
:106CF000064C074D06E0E06840F0010394E8070009
:106D000098471034AC42F6D3FFF77EFAF8CF030071
:106D100018D003002DE9F34F8BB04FF0000801F1BC
:106D20000C000C464FF0010B46460DF1080A01908D
:106D30006269012101989047051E2DD0252D2CD088
:106D4000216A8847C0B16269012101989047216A90
:106D500088470028F7D1411E62690198904700E0FA
:106D6000761CA1690B988847216A88470028F7D1CB
:106D7000E1690B988847DBE7A1690B9888470746CC
:106D8000A84201D1761CD3E7E1690B9888477F1CA4
:106D900002D1B8F1000F6FD046E1002762693D468D
:106DA0003946019890472A2804D162690121019847
:106DB00090470125DFF8849262690121019890478C
:106DC000A0F130010A290AD24F45E5DC07EB870123
:106DD00000EB4107303FDFD445F01005ECE7E90652
:106DE00001D46FF000476C280AD04C2814D06828D2
:106DF00015D06A280DD074281CD07A281AD01DE02E
:106E000062690121019890476C2802D045F0040581
:106E100014E045F002050DE045F020050AE0626946
:106E2000012101989047682802D045F0080505E047
:106E300045F400656269012101989047C4E9015752
:106E400065283DD019DC58287AD00CDC452837D08D
:106E500004DC252826D0412831D131E046282FD026
:106E600047282CD12CE05B2877D0612828D06328D4
:106E70007CD0642823D15AE0D0E06F2848D008DCC9
:106E800066281DD067281BD0692821D06E2816D10E
:106E900027E0702845D0732868D0752847D0782817
:106EA0000DD14DE0A1690B988847054625283FF490
:106EB00069AFE1690B9888476D1C3FF46AAFB3E096
:106EC00023466A466FF001000B99AFF300809EE005
:106ED00045F040006060A80723464FF0000236D41A
:106EE0003EE0E8077FF447AF2068011D216000689D
:106EF000290501D506701BE7290701D5068017E78C
:106F0000A90703D5F117C0E9006111E706600FE793
:106F100045F040006060A80723464FF0080216D4F1
:106F20001EE040F60E0125EA0100606016E045F023
:106F300040006060A80723464FF00A0207D40FE024
:106F400045F040006060A80708D5234610226FF086
:106F500001000B99AFF3008059E007E023461022AF
:106F60006FF001000B99FFF7A1FB50E04FF0000913
:106F70004F464B46632802D05B2806D040E0E80627
:106F800001D40120A06001273AE062690121019843
:106F900090475E2805D14FF0010962694946019882
:106FA0009047216939B900210A46534643F8212008
:106FB000491C0829FADBB0B3216969B9C11700EB94
:106FC000D16253110AEB830122F01F02821A0120C1
:106FD0000B68904003430B60626901210198904760
:106FE0005D28E8D1B9F1000F09D00020514651F8D1
:106FF0002020D24341F82020401C0828F7DB02ABB8
:10700000224600976FF001000B99FFF7F5FB00286F
:107010000CDA401C08D1BBF1000F05D04FF0FF3057
:107020000DB0BDE8F08FFFE74046F9E7E90701D171
:1070300008F1010806444FF0000B79E6CCCCCC0CEB
:1070400070B58C1810F8015B15F0070301D110F82A
:10705000013B2A1106D110F8012B03E010F8016B57
:1070600001F8016B5B1EF9D12B0705D40023521EDA
:107070000DD401F8013BFAE710F8013BCB1A921C42
:1070800003E013F8015B01F8015B521EF9D5A14240
:10709000D8D3002070BD0DF085B80000084810B5A9
:1070A000417800290BD00021417006490120086079
:1070B0000DF08EF84FF0E0218020C1F8800210BD65
:1070C000942B00200870004004494A680260087848
:1070D000002802D00020087001207047942B002067
:1070E00005484178002905D1012141700021017036
:1070F00010F086BC70470000942B00202DE9FF475C
:1071000003A8FFF7E1FF00287ED000F039F98DF8E1
:1071100008009DED030AB8EEC00ADFED8C0A8C4F23
:1071200020EE200ABCEEC00A10EE100A86B2A7F8C4
:1071300003609DF80800DFF81CA2DFF81C92874C62
:1071400000254FF47A78A8B19DF80800032811D0E3
:107150000120A07002F0D4FD00F5F070A0619DF850
:10716000080040F2E73101285ED09DF808000228AF
:107170007ED0E4E09DF80800387002F0C9FDCAF83E
:107180002C0002F0BDFDA169A278411A65EB050053
:10719000A2B1002812DA724A891A70F1FF3000DABF
:1071A000A561039880B206F011FE2189884201D3BF
:1071B000642905D2A570A4F80A8003E0A57001E057
:1071C000A07860BB0398002680B206F0FFFDE1893D
:1071D000411A3131622900D80126E17901B1E081FB
:1071E000E6B16189411A00D5494209B21E2901DD83
:1071F000A4F80A806189884202D8E289A2812281AA
:107200002561E081A08900E09BE0814200D360819C
:10721000A7F80100A9F80800BDE8FF87E081B7F8EA
:107220000110A9F80810F7E7ADF8005094ED040A32
:10723000B8EE400A9FED4B1A2089C0EE010A00EE1D
:10724000100AB2EE041AB8EE400A00EE810ABCEE53
:10725000C00A10EE100AADF80000BDF8002001953C
:107260004046824253D2039880B206F0AFFD00E060
:107270005EE0ADF80400BDF80400BDF800108842DF
:10728000BDF8040004D2ADF80000BDF804000CE025
:10729000BDF80010401AC82809DDBDF80400C83840
:1072A000ADF80000BDF80400C83820812561BDF8A4
:1072B00000006081BDF8000006F034FD019002F08E
:1072C00027FDDAF82C10D046461A65EB050502F0CA
:1072D0001FFDC8F82C00701E75F1000001DA0126B0
:1072E00007E04FF416710020891BA84101DA4FF422
:1072F0001676B2B20020216903E0019B401C1944BC
:1073000080B29042F9D321619DF808000AE0BDF8EF
:107310000020824208D3B6F5CD7F05D96081208157
:107320000220256138700AE0618121812561EBE747
:107330009DF808003870A4F80A80218125616089D1
:1073400066E700F011F800F05BF865E7D381E83DEF
:10735000F02A0020B0410020CB2A0020A02B0020E2
:1073600020FEFFFF00C8AF4A04488179002903D0FE
:1073700000218171FFF792BE70470000A02B002012
:107380000CB54FF0A040D0F81015C1F380418DF836
:107390000010D0F81005C0F300508DF804009DF8DF
:1073A0000400074940B19DF8000018B102200122F5
:1073B0004A700CBD0120FAE700200246F8E7000001
:1073C000A02B00200148407870470000A02B00202F
:1073D0000A4810B5017800290FD101210170002160
:1073E0001C200BF079FB002112200BF075FB002113
:1073F000BDE8104014200BF06FBB10BDA02B002087
:10740000074810B58179002909D101218171FFF761
:10741000DFFFFFF765FE02F07BFC0249C86210BD8A
:10742000A02B0020B041002010B5FFF7D1FFFFF7DF
:1074300057FEFFF730FE012012F076F9FFF72EFE1F
:10744000BDE81040FFF75ABE04484179002904D135
:10745000012141710249098901817047A02B002057
:10746000CB2A002010B5FFF7B3FFFFF739FEFFF777
:1074700012FE322008F0F3FBFFF710FEFFF73EFE8E
:1074800010BD000070B5064600250BA1284602F08D
:10749000EBFD104C607860B1A07850B90EA10020CF
:1074A00002F0E2FD0120A07005F06AFF304605F011
:1074B000E9FF284670BD00003C424C453E20416437
:1074C0007620537461727420726571756573742EC1
:1074D0000D0A0000C82B00203C424C453E20416470
:1074E000762053746172742E0D0A00002DE9F0416C
:1074F00000252CA1284602F0B7FD314CA0780028C9
:107500004CD0A8462F4E84F802802FA196F8542024
:10751000404602F0A9FD228934A1002002F0A4FD1A
:1075200022893C4FA2F57F40FF381DD03AA10020B0
:1075300002F09AFD1321208976DF20B13BA240F2B0
:107540000E51FEF767FE41F2883503E0012008F096
:107550007BFB6D1E3878012801D1002DF6D12A461B
:1075600039A1002002F080FD96F8540074DF051E5A
:1075700006D02EA240F21B51FEF74CFE39A104E0CA
:107580000120207087F800803DA1002002F06CFDF2
:1075900096F8542040A1002002F066FD2846BDE880
:1075A000F08100003C424C453E20496E20424C4553
:1075B000204164762053746F702E0D0A0000000085
:1075C000C82B0020084500203C424C453E20416429
:1075D000762053746F70322E2041445668616E6479
:1075E0006C653D3078253038580D0A003C424C45DA
:1075F0003E204164762053746F70322E206D5F639D
:107600006F6E6E5F68616E646C653D3078253038F2
:10761000580D0A00ED2A00203C424C453E206449AA
:1076200053434F4E31310D0A000000002E2E5C2EC8
:107630002E5C2E2E5C447269766572735C64727681
:107640005F626C652E6300003C424C453E20535403
:107650004F502054696D656F75743D202575200D60
:107660000A0000003C424C453E20424C45205374E9
:107670006F70206661696C7572652E0D0A000000DE
:107680003C424C453E20424C452053746F70204F85
:107690006B2E0D0A000000003C424C453E20496E16
:1076A00020424C45204164762053746F7020496E0F
:1076B0002E3D25640D0A00004FF400707047000055
:1076C000004870476047002030B5344C87B0607880
:1076D000002861D132A102F0C7FC607901250028A1
:1076E00017D1012012F04AFCA06128B1657131A1C7
:1076F000002002F0B9FC0CE037A1002002F0B4FC3D
:107700000A2008F0A1FA3EA240F279510120FEF7CA
:1077100081FD42494FF40072A1F1100006F04BF8D0
:1077200020B137A240F28151FEF774FD07F01EFE32
:1077300006F0E6F820B13A4A40F20131FEF76AFD60
:1077400005F0AAF8142102A8FEF76BFF4FF0805055
:1077500050F8A41F0068C9B2C0F30320CDE90001AE
:1077600030A333A2142102A805F014FA02A808F0ED
:10777000BBFE08F009FF0EF061FB10F00DFD05F0F7
:10778000FFFD08F049F905F088F80449A571891D45
:107790002A480CF051F8657007B030BDC82B0020A6
:1077A0003C424C453E20424C455F496E69742E0D6B
:1077B0000A0000003C424C453E207853656D6170E4
:1077C000686F72654372656174654D757465782084
:1077D0004F4B2E0D0A0000003C424C453E20785392
:1077E000656D6170686F72654372656174654D7532
:1077F000746578204661696C7572650D0A00000039
:107800002E2E5C2E2E5C2E2E5C4472697665727371
:107810005C6472765F626C652E63000070470020C6
:10782000F8D40200564151534F5F56525F0000009A
:1078300025732530315825303258000085740200F8
:107840002DE9F0410E4C0646174660780D46A8B16A
:1078500047F23051A06912F025FD2946304600F06C
:1078600009F9384600F00EF8002305461A46194675
:10787000A06912F0EDFB2846BDE8F0810320FBE78C
:10788000C82B00202DE9F84F424C074620790028EC
:107890007DD0607800287AD03F480078012876D1E2
:1078A000A08900B101206189084485B22A463BA124
:1078B000002002F0D9FB40F6B8364FF000094FF037
:1078C000010836E0E078D0B16089E081C0EB0010BB
:1078D0006169304A00EB400001EB80010C322389E2
:1078E00002F1100007F064FC5FEA000A1BD16D1E74
:1078F000ADB2A389628930A102F0B6FB3BE0B420AF
:10790000ADF80000E0896169C0EB001000EB4000B9
:1079100001EB80011F4823896A461C3007F048FCB0
:107920005FEA000A0FD0012008F08EF903F07CFC1A
:10793000761E0DB1002EC5D132462FA1002002F0D7
:1079400093FBFEB123E06D1EADB2B423E28930A1FA
:10795000002002F089FBE089401C82B2E28160894C
:107960008242E6D3A08910B184F80380E1E735A113
:10797000002002F079FB84F80490002FD9D087F81A
:107980000080D6E784F804900FB187F80080504655
:10799000BDE8F88FC82B0020ED2A00203C424C4562
:1079A0003E207061636B65745F626C655F73636ECC
:1079B000743D25640D0A00003C424C453E20706138
:1079C000636B65745F626C655F73656E645F696E3F
:1079D000646578203D25642C2052656D61696E20B8
:1079E0006C656E203D2025642C46696E69736820A5
:1079F00053656E642E0D0A003C424C453E2074696E
:107A00006D655F6F75745F636E743D25640D0A006C
:107A10003C424C453E207061636B65745F626C65EF
:107A20005F73656E645F696E646578203D25642CC4
:107A30002053656E64206C656E203D2025642E0DFC
:107A40000A0000003C424C453E207061636B657447
:107A50005F626C655F73656E645F696E64657820F4
:107A60003D25642C46696E6973682053656E642EEB
:107A70000D0A000038B5B423B1FBF3F2B1FBF3F506
:107A80000C4C03FB1513606162810025A381E58125
:107A900001216AB184F8035052EA030501D000B114
:107AA00021712079009004A1002002F0DDFA38BD98
:107AB000E170F1E7C82B00203C424C453E2070614C
:107AC000636B65742073656E64207072657061729B
:107AD000652C206C656E3D25642C2072656D616996
:107AE0006E5F6C656E3D25642C2073746172743D0D
:107AF00025642E0D0A00000004A1002002F0B4FA53
:107B0000322008F0A1F801F079FE000042757346BA
:107B100061756C745F48616E646C65720D0A2E0D40
:107B20000A0000000449097819B1401CC0B200F0F5
:107B30007FB8002070470000162B0020074910B5C1
:107B40000A7842B90120087000F090F8044604A1B8
:107B5000002002F089FA204610BD0000162B0020FC
:107B60003C4341525452494447453E20496E697452
:107B70002E0D0A001CB5094A127862B10022ADF838
:107B8000042001AA0092401C0A46C0B206235021DC
:107B900000F03CF91CBD00201CBD0000162B00208D
:107BA0001CB5094A127862B10022ADF8042001AA7E
:107BB0000092401C0A46C0B20D23002100F026F9B5
:107BC0001CBD00201CBD0000162B0020054A1278A9
:107BD00032B1401C06230A46C0B2502100F0DCB985
:107BE00000207047162B0020054A127832B1401C45
:107BF0000D230A46C0B2002100F0CEB90020704724
:107C0000162B002004A1002002F02EFA322008F0EA
:107C10001BF801F0F3FD000044656275674D6F6E5F
:107C20005F48616E646C65720D0A2E0D0A000000DB
:107C300038B50D4C054644F62061606812F032FB01
:107C4000284602F0A3FE04F10800012243686946B9
:107C500050209847002305461A461946606812F0DE
:107C6000F7F9284638BD0000302B002070B5184CBD
:107C700001252078002828D160780126002817D116
:107C8000012012F07BF9606028B1667011A100201C
:107C900002F0EAF90CE019A1002002F0E5F90A204F
:107CA00007F0D2FF20A240F293110120FEF7B2FAB2
:107CB000074808300068804702F082FE0546024609
:107CC00021A1002002F0D0F92670284670BD0000E6
:107CD000302B00203C454550524F4D3E2078536597
:107CE0006D6170686F72654372656174654D75741E
:107CF0006578204F4B2E0D0A000000003C45455092
:107D0000524F4D3E207853656D6170686F726543C8
:107D100072656174654D7574657820204661696C83
:107D20007572650D0A0000002E2E5C2E2E5C2E2E24
:107D30005C447269766572735C6472765F656570C7
:107D4000726F6D2E630000003C454550524F4D3E12
:107D500020496E69742E207265743D25640D0A00F9
:107D60002DE9F8430D460021FF2802D90020BDE887
:107D7000F8838318B3F5807F01D9C0F580728DF840
:107D80000000FF2092B2B2FBF0F3B2FBF0F700FB71
:107D900013260024DFF8548015E00123D8F808C02A
:107DA0001A4669465020E047FF22D8F80430294699
:107DB0005020984701469DF80000641C401E8DF835
:107DC0000000A4B2FF35BC42E7D36EB10123D8F85E
:107DD000087044461A4669465020B84763683246E0
:107DE00029465020984701460846C0E7382B002016
:107DF00070B51C4615460E4602F0C8FD22462946BF
:107E00003046BDE87040FFF7ABBF00002DE9F84FEA
:107E10002D4E884682461D46914647F230510A9CB7
:107E2000706812F03FFA04236A4641465046FFF755
:107E3000DFFFBDF8007007F47F40B0F58A4F09D02E
:107E40000CB10020208000231A461946706812F0F9
:107E5000FFF821E0BDF8020004B12080044609F0DB
:107E6000E5FD834608F1040189B223465A4650468F
:107E7000FFF7BEFF80462146584610F041FD40F412
:107E80008A40B8420BD000231A461946706812F097
:107E9000DFF8584608F0FCFA0020BDE8F88FAC4245
:107EA00000DD2C46224659464846FEF7A1FB00233A
:107EB0001A461946706812F0CBF84446584608F046
:107EC000E7FA2046E9E70000302B00202DE9FF47C4
:107ED000064600208A46FF2E4BD8B118B1F5807FA8
:107EE00001D9C6F5807297B20024DFF88C8037E0A4
:107EF0003019C0B2410716D104F10805BD4212D8AD
:107F00008DF800000AEB040000230168CDF8011091
:107F10004068CDF805000922D8F80840694650208D
:107F2000A047ACB20EE08DF800001AF804008DF8FE
:107F3000010000230222D8F8085069465020A847C3
:107F4000641CA4B200208DF80C0005464FF47A7929
:107F50000123D8F808C01A4603A95020E04720B1F1
:107F6000BC42C5D304B0BDE8F0876D1CADB24D4531
:107F7000EED30020F6E70000382B002070B51C4639
:107F800015460E4602F002FD224629463046BDE85F
:107F90007040FFF79BBF00002DE9F05FDFF86890AD
:107FA0000F4682461C46934647F23051D9F80400EA
:107FB00012F078F92146584610F0A2FC40F48A46A7
:107FC000201D09F033FD66F30F08054664F31F48D2
:107FD00040F8048B22465946FEF70AFB241DA3B243
:107FE0002A4639465046FFF7C9FF002304461A4681
:107FF0001946D9F8040012F02BF8284608F048FA80
:108000002046BDE8F09F0000302B002070B5064CE4
:10801000064D0749238935F8012F002002F024F886
:108020002089288070BD0000CB2A0020F02A002083
:1080300050CD0300AFF300803EB5FFF717FE0021DF
:1080400002A822240090ADF808100D4623461D4AD0
:108050000846FFF7DBFEBDF8083002002AD0222BCD
:1080600007D0224618A1002001F0FEFF00F078F8AA
:108070003EBDFFF7E9F9BDF808002A46CDE900400A
:10808000104C1E490020238901F0EEFFD4F8032094
:108090001BA1002001F0E8FFA07B0028E8D11422FA
:1080A0001D4904F10E00FEF7A3FA1CA1002001F007
:1080B000DBFF3EBD1FA1002001F0D6FFFFF7A6FFAA
:1080C0003EBD0000CB2A00203C454E563E204C6F62
:1080D0006164206661696C7572652C20656E765FDF
:1080E00073697A65203D25642C20726561645F7335
:1080F0007A69653D2564200D0A00000000CD03006B
:108100003C454E563E20626F6F7454696D65203D4C
:108110002025750D0A00000066AD03003C454E5653
:108120003E20626C65206E616D65206572726F72B3
:108130002E0D0A003C454E563E204C6F6164206671
:1081400061696C7572652E7265743D25642E2072AE
:108150006561645F636F756E743D25642E0D0A0062
:1081600030B5154C85B01422258914496846FEF7B0
:108170003FFA22212046FEF754FA1422694604F100
:108180000E00FEF735FA2581FFF740FF1120207021
:108190002220A4F80100258101F0BAFD024608A1C1
:1081A000002001F061FF0E480EA1B0F80120002070
:1081B00001F05AFF05B030BDCB2A002066AD0300A8
:1081C000454E565F52657365742E2E2E3131313116
:1081D0002E2E2E2E2E5254433D25750D0A000000E2
:1081E000F02A00203C57524954453E20454E565FE8
:1081F000416374697665436F6E666967202E2E2031
:108200006261742E70657263656E746167653D2589
:10821000642E0D0A0000000010B590B01BA10020D4
:1082200001F022FF2048214CB0F80100208101F02C
:108230006FFDC4F80A000F900FA8FEF78FF90146F2
:108240002C2204A8FEF7D4F90DF1100C9CE80F00C5
:10825000CDE90210CDE90032DDE9083214A1002099
:1082600002F26C725B1C01F0FFFE00212223224609
:108270000846FFF791FE0246D4F80A0000902389D1
:1082800019A1002001F0F0FE10B010BD3C454E5683
:108290005F536176653E20454E565F5341564520FB
:1082A000696E200D0A000000F02A0020CB2A002071
:1082B0003C454E565F536176653E20446179546972
:1082C0006D6520253034642D253032642D25303203
:1082D000642C20253032643A253032643A2530321D
:1082E000642E200D0A0000003C454E563E20577279
:1082F000697465207265743D25752E6366672E620C
:10830000617450657263656E746167653D25642CA8
:10831000202E5254433D25752E0D0A0002494978FE
:10832000C14001F001007047142B0020064910B530
:10833000087830B901200870224604A1002001F01D
:1083400093FE204610BD0000142B00203C46414EF9
:108350003E20496E69742E207265743D25642E0D91
:108360000A0000002DE9F0410E460746052802D319
:108370000020BDE8F0810124094DBC402EB1697890
:1083800044EA0100687001F0C5FA32010021384664
:1083900001F03FFB002EECD16978A1436970E8E75A
:1083A000142B00202DE9F04700268AB0DFF8509109
:1083B000B0464FF4807501243746069628460AF0E9
:1083C000F7FB38B1D9F80403204203D028460AF05D
:1083D000E5FB26432D1D64007F1CADB2082FEDD3B5
:1083E0004FF4BE7420460AF0E3FB48B120460AF081
:1083F000D5FB46F0004606AA012100200AF0BAFB90
:10840000404D16F0FF0F15D00127002437420DD044
:1084100009EB8401D1F81005D1F81015C0F3042040
:1084200055F82420C1F3014102B190477F00641C3C
:10843000082CEBD3002E5FDA4FF0FF30CDF8108020
:1084400054E0281910F8507F90F9000027F0C00878
:10845000401C3BD007A9404609F04BFD10B34FEA42
:108460009719404607F016F955F820701FB1B9F179
:10847000030F03D006E0B9F1030F27D104A940464A
:1084800009F03FFD4FF0A04101EB8800D0F8000754
:1084900006A9C0F3014A404609F02BFD18B1BAF114
:1084A000020F03D012E0BAF1030F0FD1B9F1030F9D
:1084B00008D1BAF1020F1DD0022140460AF033FB69
:1084C000761CF6B217B149464046B847641C042CE6
:1084D000B7D3002E10D06A46012100200AF04AFBD3
:1084E00006990098884207D00690049800263446E2
:1084F0000790A6E70321E0E70AB0BDE8F087000097
:1085000000600040B43000200F4810B541780029C9
:1085100018D0002444700D480BF066FF0B480CF097
:1085200031F802200AF0B5FA03200AF0B2FA08483E
:108530000460016801210160BDE8104005A1002030
:1085400001F092BD10BD0000042C002048B00300D3
:10855000FC4F00403C493243323E204465496E693D
:10856000742E0D0A000000007FB51F4C60780028B3
:1085700039D1A0780125002816D1012011F0FEFC88
:10858000606028B1A57019A1002001F06DFD0BE01D
:108590001FA1002001F068FD0A2007F055FB26A26C
:1085A000A1210120FDF736FE02200AF072FA032015
:1085B0000AF06FFA274B0FCB8DE80F0025480023F8
:1085C0001A466946103809F021FE18B11AA2B521E1
:1085D000FDF720FE1F480C380BF022FF1EA10020E3
:1085E00001F042FD65707FBD042C00203C49324300
:1085F000323E207853656D6170686F7265437265B5
:108600006174654D75746578204F4B2E0D0A00001E
:108610003C493243323E207853656D6170686F7219
:10862000654372656174654D75746578204661694E
:108630006C7572650D0A00002E2E5C2E2E5C2E2E9F
:108640005C447269766572735C6472765F693263EA
:108650002E63000054B003003C493243323E2049AF
:108660006E69742E0D0A00002DE9F0410D4C0E4686
:108670000746904647F23051606811F013FE00251E
:10868000257009483946324643460BF047FF00B98A
:10869000012500231A461946606811F0D9FC2846C6
:1086A000BDE8F081042C002048B003002DE9F84318
:1086B0000E4C884607461E46914647F23051606888
:1086C00011F0F0FD002525700948394642464B4619
:1086D00000960BF03BFF00B9012500231A4619460E
:1086E000606811F0B5FC2846BDE8F883042C002032
:1086F00048B003002DE9FC413F4E4FF48A752946EE
:1087000030460AF05DFA3D4C70B1294630460AF019
:108710005CFA607940F008016171880704D5C806E9
:1087200002D541F0200060714FF482752946304631
:108730000AF046FA70B1294630460AF046FA6079E6
:1087400040F004016171C80704D0C80602D541F0A9
:10875000200060714FF48477394630460AF030FAD1
:108760000025B0B1394630460AF02FFA0420C6F889
:108770000803C6F8005521480021226810309047B0
:108780001E48002122680830904701202071BDE872
:10879000FC81607981074FEAC07103D519B10107E7
:1087A00005D4F4E709B9010703D48107EFD44107E1
:1087B000EDD520F00C00607181060BD520F0200073
:1087C00040F010006071226802B00121BDE8F04164
:1087D00000201047D4E90412CDE90012D4E90212B6
:1087E000A560E560C4E9041240F0100060712268E1
:1087F000012168469047CAE700500240583D0020DA
:1088000030B5294C85B0A07800284AD120790125BF
:10881000002816D1012011F0B1FBE06028B12571CC
:1088200022A1002001F020FC0BE02AA1002001F091
:108830001BFC0A2007F008FA32A282210120FDF772
:10884000E9FC142237496846FDF7D2FE0B208DF86B
:1088500000000421FF208DF803108DF801008DF831
:1088600004008DF802004FF02050039000208DF896
:108870000A008DF806008DF808008DF810008DF8BC
:1088800007008DF80900684627490BF06FF918B109
:108890001CA29D21FDF7BEFC24A1002001F0E4FBF9
:1088A000A57005B030BD0000182B00203C493253A4
:1088B0003E206932735F53656D6170686F72654306
:1088C00072656174654D75746578204F4B2E0D0A85
:1088D000000000003C575332383132423E206932AA
:1088E000735F53656D6170686F7265437265617423
:1088F000654D75746578204661696C7572650D0A01
:10890000000000002E2E5C2E2E5C2E2E5C44726920
:10891000766572735C6472765F7773323831326277
:108920002E63000094AF0300590D03003C493253FD
:108930003E20496E69742E0D0A0000007CB5134C70
:1089400006460D46A078F8B11149E06811F0AAFC7E
:10895000002060702070CDE900060246C5F38F014B
:1089600068460BF05BF9051E05D00AA22F21FDF722
:1089700051FC00E020BF20780028FBD000231A46DD
:108980001946E06811F064FB28467CBD182B0020D6
:1089900000350C002E2E5C2E2E5C2E2E5C4472694F
:1089A000766572735C6472765F77733238313262E7
:1089B0002E630000024800218172C172017370476A
:1089C0007049002007498A7AC87A824201D1002082
:1089D0007047885C521CD2B28A720A2AF8D30022ED
:1089E0008A72704770490020054911F810104FF045
:1089F000A040D0F81005C84000F00100704700000A
:108A000066B003007CB50D480178002915D101211D
:108A100000240B4E0170254636F814000022032373
:108A20000095114601950AF007F8641C14F0FF0444
:108A3000F2D0BDE87C4000F005B87CBD0C2C0020D5
:108A400066B003000649FF20487000208870C91CEA
:108A50000870491C0870491C0870491C0870704750
:108A60000C2C00200549CA7A8854C87A401CC0B230
:108A7000C8720A2801D30020C872704770490020CC
:108A800000B50020FFF7B0FF002800D0012000BD96
:108A90002DE9F04F334C0023334F1D461A469B46B9
:108AA000A4F10108A61FA4F10309A4F1020A1046CB
:108AB000FFF79AFF0028B85C24D0717808437070E3
:108AC0000AF802B004F802B019F802C05846BCF126
:108AD000000F09D04FEAC20C022109F8020001FA86
:108AE0000CF10B4308F802008DB3B85CB178084272
:108AF0002DD0012009F802001AF802C0BCF1000FC5
:108B000020D024E018F80210054361B9A15C491C8B
:108B1000C9B2A1542829E7D1012108F80210D100D7
:108B2000202088400343A05C401CC0B2A0545028C1
:108B3000DAD9512803D1D1001020884003435220B4
:108B4000A054D1E70AF80200D10088400343521C28
:108B500012F0FF02ABD070780540B5701846BDE842
:108B6000F08F0000122C002064B003002DE9F143C7
:108B7000009800282FD01948C07900282BD0002455
:108B8000012602274FF020084FF01009E500009958
:108B900006FA05F0084202D00120FFF763FF0099B2
:108BA00007FA05F0084202D00220FFF75BFF0099A8
:108BB00008FA05F0084202D00620FFF753FF00999B
:108BC00009FA05F0084202D00720FFF74BFF641CAA
:108BD00014F0FF04DAD0BDE8F88300000C2C00206C
:108BE000064810B5C178002907D10121C17000F0F5
:108BF00011F8BDE8104002F0CBBB10BD002B0020E7
:108C0000024900208870024804F0C6BD002B0020F5
:108C1000E0410020074910B51022A1F1100004F036
:108C2000CAFD041E03D004A29321FDF7F3FA2046E7
:108C300010BD0000F04100202E2E5C2E2E5C2E2E4A
:108C40005C4170705C6C696768742E6300000000A2
:108C500070B588B000268DF8046001A96F4804F053
:108C60009FFD00282CD19DF804206DA101F0FCF996
:108C70009DF80400744C7549032805D12278002A18
:108C80001ED00A78032A17D0087026286FD2DFE892
:108C900000F015193565686B6F7275787B7E80847E
:108CA00086888A8C90929496989C9EA0A2A4A8AA4A
:108CB000ACAEB0B4B6B8BABD65A1ABE000F0FDFC97
:108CC00008B070BD00F0C2FC012602A800908DF82B
:108CD000186006AB32460221772002F01CFD0546E3
:108CE0000146002202A802F069F90022294602A8E2
:108CF000FEF7A6FDFFF75EFE6670E1E702208DF845
:108D0000180002A80090012206AB0221772002F091
:108D100002FD05460146002202A802F04FF900229A
:108D2000294602A8FEF78CFD00F05EFC5748C6718C
:108D3000FFF772FA01F062FC66704FF4FA6006F019
:108D400083FFBFF34F8F52480168524A01F4E0613C
:108D500011430160BFF34F8F00BFFDE700F0EAF958
:108D6000AEE700F0CFFAABE700F070FAA8E750E00A
:108D700000F0C9F9A4E700F066F9A1E700F07EF978
:108D80009EE700F097F99BE700F00CFC98E70020C5
:108D900000E0012000F07CFB92E70220FAE70320CC
:108DA000F8E70420F6E7002000E0012000F0F8FAE0
:108DB00086E70220FAE70320F8E70420F6E7002020
:108DC00000E0012000F02AFB7AE70220FAE7032006
:108DD000F8E70420F6E7002000E0012000F022F987
:108DE0006EE70220FAE70320F8E70420F6E7002008
:108DF00000E0012000F0F0F862E70220FAE703202B
:108E0000F8E70420F6E700F083FB59E700F05CFC8C
:108E100056E721A1002001F027F951E7E0410020A9
:108E20003C4C494748543E20676574206C6967682C
:108E3000745F73657175656E63655F747970653DA8
:108E400025642E0D0A000000ED2A0020002B0020D2
:108E50003C4C494748543E206C696768745F7365B1
:108E60007175656E63655F6C6173745F747970654D
:108E7000203D3D204C494748545F424C455F4144AA
:108E8000565F53544152542E0D0A0000CB2A002045
:108E90000CED00E00400FA053C4C494748543E20E4
:108EA0006E6F7420746865206C69676874207365E0
:108EB0007175656E636520747970652E0D0A00000A
:108EC00070B5044602461BA1002001F0CDF8214DEB
:108ED0006878032802D0042803D00BE0042C02D0C9
:108EE0000BE0032C0BD11C4804F056FC1BA1002006
:108EF00001F0BAF86878032801D1032C11D06C7006
:108F0000032C14D00020A8702146134804F063FC01
:108F1000040004D0024619A1002001F0A5F8204663
:108F200070BD21A1002001F09FF8082070BD012034
:108F3000E9E700003C4C494748543E2073657420E3
:108F400073657175656E636520747970653D256420
:108F50002E0D0A00002B0020E04100203C4C494728
:108F600048543E206C696768745F73657175656EFF
:108F700063655F6669666F0D0A0000003C4C4947F7
:108F800048543E207365742073657175656E636522
:108F900020747970652C6572725F636F64653D2023
:108FA00025642E0D0A0000003C4C494748543E20E1
:108FB00052657475726E2C62656361757365206CA1
:108FC000617374207479706520697320424C455F29
:108FD0004164762E0D0A000038B5044600208DF855
:108FE00000008DF801008DF8020004EB4400694692
:108FF000401C02F091FA02F065FA042C0ED10848E8
:109000000078012805D0022805D0032806D10920C0
:1090100002E0072000E00820FFF752FF38BD000003
:10902000F02A002008B5FF218DF800108DF80110FE
:109030008DF8021000EB40006946401C02F06CFA0B
:1090400002F040FA08BD08B50420FFF767F910B137
:109050001E20FFF735FFFF208DF8000000208DF85F
:1090600001008DF8020069460E2002F055FA02F068
:1090700029FA4FF4FA7010F057FB08BD08B5042028
:10908000FFF74CF910B11E20FFF71AFF00208DF8F2
:1090900000008DF80100FF208DF8020069460E20C7
:1090A00002F03AFA02F00EFA4FF4FA7010F03CFBBC
:1090B00008BD0000F8B50420FFF730F910B11E20FC
:1090C000FFF7FEFE00242546FF274FF4FA7600BF87
:1090D0008DF800708DF801508DF8025069460E2011
:1090E00002F01AFA02F0EEF9304610F01DFB02F021
:1090F000DBF902F0E7F9304610F016FB641CE4B22D
:10910000042CE5D3F8BD08B50420FFF707F910B12A
:109110001E20FFF7D5FE00208DF800008DF801001D
:109120008DF8020069460E2002F0F6F902F0CAF945
:1091300008BD00002DE9FC4100268DF800608DF887
:109140000160FF208DF802000120ADF804003C4CC6
:109150000E27002519E000BFBDF804006B460F2262
:10916000002102F067FA0121BDF8040000F0B8FA0E
:10917000ADF8040002F0A6F9A07810B1642010F058
:10918000D3FA6D1CADB2BD4203D2A0780028E3D162
:1091900002E0A0780028DCD12A480078032820D1FA
:1091A000607804281DD005281BD0801F2546042880
:1091B00002D80320FFF784FE68781038042802D80C
:1091C0000320FFF77DFE68781538042802D80320B5
:1091D000FFF776FE68780B38042802D80320FFF7E3
:1091E0006FFE8DF800608DF801608DF802600F222F
:1091F0000021684602F098F802F064F96078FF28D0
:109200001CD100242046FFF789F820B104F11A0090
:10921000C0B2FFF755FE641CE4B2052CF2D30A4835
:109220000078012805D0022805D0032806D109209E
:1092300002E0072000E00820FFF742FEBDE8FC81C5
:10924000002B0020ED2A0020F02A00202DE9F84311
:109250000025FF26A8464FF4FA7900BF8DF800607C
:109260008DF8016044468DF80280002707EB470027
:109270006946401C02F050F97F1CFFB2052FF5D360
:1092800002F020F94F46484610F04EFA8DF80040A3
:109290008DF801408DF802405FF0000404EB4400BB
:1092A0006946401C02F038F9641CE4B2052CF5D381
:1092B00002F008F9384610F037FA6D1CEDB2052DB2
:1092C000CCD300242046FFF729F820B104F11A007E
:1092D000C0B2FFF7F5FD641CE4B2052CF2D30848D8
:1092E0000078012805D0022805D0032806D10920DE
:1092F00002E0072000E00820FFF7E2FDBDE8F88368
:10930000F02A002038B500248DF800408DF8014087
:10931000FF208DF80200254605EB45006946401CFC
:1093200002F0FAF86D1CEDB2052DF5D302F0CAF883
:1093300040F2DC5010F0F8F98DF800408DF8014053
:109340008DF802405FF0000404EB44006946401CC5
:1093500002F0E2F8641CE4B2052CF5D302F0B2F896
:1093600000242046FEF7DAFF20B104F11A00C0B253
:10937000FFF7A6FD641CE4B2052CF2D30748007881
:10938000012805D0022805D0032806D1092002E0D3
:10939000072000E00820FFF793FD38BDF02A0020E9
:1093A0002DE9F84300270646DFF868803C4600EBCD
:1093B000460500978DF8007018F804008DF801003C
:1093C000681C694602F0A8F802F07CF8162C02D25C
:1093D000642010F0A9F9641CE4B2172CEAD33046DB
:1093E000FEF79CFF10B11A36F0B20CE0042E0CD13F
:1093F00009480078012805D0022808D0032804D1A4
:10940000092000E00720FFF75BFDBDE8F883082096
:10941000F9E7000057AF0300F02A0020F8B5064630
:109420000020194F044606EB46050090385D8DF884
:1094300000008DF80100681C694602F06DF802F02A
:1094400041F8162C02D2642010F06EF9641CE4B2CC
:10945000172CEBD33046FEF761FF10B11A36F0B28D
:109460000CE0042E0CD109480078012805D0022810
:1094700007D0032804D1092000E00720FFF720FDD2
:10948000F8BD0820FAE7000057AF0300F02A0020DB
:109490002DE9F843804600201B4F054608EB48069F
:1094A000009000246946385D8DF800008DF80100B9
:1094B000701C02F031F802F005F82B2010F034F99E
:1094C000641CE4B2172CEDD36D1CEDB2032DE8D370
:1094D0004046FEF723FF18B108F11A00C0B20DE0B4
:1094E000B8F1040F0CD109480078012805D00228F2
:1094F00008D0032804D1092000E00720FFF7E0FC92
:10950000BDE8F8830820F9E757AF0300F02A0020F0
:1095100008B5FF208DF800008DF801008DF80200DD
:109520006946002001F0F8FF01F0CCFF41F27070B5
:1095300010F0FAF808BD00002DE9F8430024184F98
:1095400026464FF0010800945FF0000505EB45004A
:10955000C0EB451038446946005D8DF800008DF879
:1095600001008DF80200284601F0D6FF6D1CEDB217
:109570000F2DEBD301F0A6FF552010F0D5F846B122
:10958000641E64B2002C02DBB8F1000FDCD1BDE830
:10959000F883641C64B2192CF6DB19240126F3E766
:1095A000A4AD0300F8B500242746FF254FF4FA7652
:1095B0008DF800508DF801508DF8027069460E202C
:1095C00001F0AAFF01F07EFF304610F0ADF801F087
:1095D0006BFF01F077FF304610F0A6F8641CE4B290
:1095E000042CE5D3F8BD000038B501F05DFFFF2085
:1095F0008DF800008DF801008DF802005FF0000486
:1096000004EB44006946401C01F086FF641CE4B290
:10961000052CF5D301F056FF40F6B83010F084F871
:1096200000208DF800008DF801008DF8020004463E
:1096300004EB44006946401C01F06EFF641CE4B278
:10964000052CF5D301F03EFF38BD000038B501F020
:109650002BFFFFF771FF4FF4FA7010F065F8FF2051
:109660008DF800008DF801008DF802005FF0000415
:1096700004EB44006946401C01F04EFF641CE4B258
:10968000052CF5D301F01EFF4FF47A7010F04CF862
:1096900000208DF800008DF801008DF802000446CE
:1096A00004EB44006946401C01F036FF641CE4B240
:1096B000052CF5D301F006FF38BD10B501F0F4FE1E
:1096C000BDE8104001F0FEBE10B50F220021034896
:1096D00001F02AFEBDE8104001F0F4BE042B00208A
:1096E0000F22B1FBF2F302FB1312C2F10F0120FAB9
:1096F00001F190400143C1F30E00704710B58CB0EA
:1097000000F006FB1349002404ABC8620A9408A8C1
:1097100009940090089409AA0FA104941148FCF739
:10972000A9FF059407A800900E48069406AB05AA69
:109730000DA107941030FCF79DFF04AC94E80F00D6
:109740008DE80F0009AB0BA10020089A00F08CFCFB
:109750000CB010BDB0410020257320256420256485
:109760000000000084AD030025643A25643A2564B6
:10977000000000003C4D41494E3E20593D25642CDF
:109780004D3D25732C443D25642C20253032643A10
:10979000253032643A253032642E0D0A0000000074
:1097A00004A1002000F060FC322006F04DFA00F029
:1097B00025F800004D656D6F72794D616E616765CA
:1097C0006D656E745F48616E646C65720D0A2E0D76
:1097D0000A00000004A1002000F046FC322006F040
:1097E00033FA00F00BF800004E4D495F48616E649B
:1097F0006C65720D0A2E0D0A00000000BFF34F8F3A
:1098000005480168054A01F4E06111430160BFF3B6
:109810004F8F00BFFDE700000CED00E00400FA05EB
:10982000074810B50178002909D00021017000F027
:1098300043F8BDE8104003A1002000F015BC10BDA6
:10984000542B00203C504341393638353E20446586
:10985000496E69742E0D0A0070B50E4D01242878EA
:10986000B0B9281D0068804700F0AAF89FED0A0AE9
:1098700000F0E4F800F0B4F800F04CF800F01CF848
:109880000446024605A1002000F0EEFB01202870EE
:10989000204670BD542B00200080BB443C50434107
:1098A000393638353E20496E69742E207265743D14
:1098B00025642E0D0A00000038B50D4801244178BA
:1098C00099B1002141706946002000F055F89DF8DB
:1098D000000000F07F0040F0B101002000F070F9BE
:1098E000044604A1002000F0BFFB204638BD000064
:1098F000542B00203C504341393638353E205043EC
:1099000041393638355F506F7765724F66662E0D78
:109910000A00000038B50F4801244178B9B9012187
:1099200041706946002000F027F89DF8000000F023
:10993000EF0040F0A101002000F042F904464FF48E
:10994000FA7006F08CF904A1002000F08DFB20468F
:1099500038BD0000542B00203C5043413936383587
:109960003E20504341393638355F506F7765724F2E
:109970006E2E0D0A0000000073B5074C01230E4641
:10998000A5681A4669464020A84701226368314607
:10999000402098477CBD0000582B0020F7B5074CAD
:1099A000012315460F46A6681A4669464020B0476F
:1099B0006368EAB2394640209847FEBD582B002024
:1099C00038B505A0002300680090044801226946CC
:1099D00084681846A04738BD06000000582B0020B8
:1099E00038B5FA24042269462046FFF7D7FF9DF8D0
:1099F0000100042220F010008DF801009DF8030002
:109A0000694640F010008DF80300204600F0ECF8A5
:109A100038BD08B506238DF80010090A8DF801102D
:109A20008DF80220110A03EB80008DF80310C0B2FC
:109A30000422694600F0D8F808BD0000DFED350AC1
:109A400010B520EE200A2DED028B86B09FED328BF3
:109A500010EE100AFDF76FF841EC100B51EC180BEB
:109A600053EC102BFCF7DFFF9FED2D1B53EC112B5C
:109A7000FCF7D3FF9FED2C1B53EC112BFCF72CFFB5
:109A800041EC100B03F0A0F851EC100BFDF73AF885
:109A900080B2FF2800D9FF20C4B2032C00D20324D7
:109AA00004A90020FFF768FF9DF8100000F07F0078
:109AB00040F01001002000F083F82146FE2000F065
:109AC0007FF89DF81010002000F07AF84FF4FA703B
:109AD00006F0C5F89DF8100040F0A101002000F04C
:109AE0006FF800208DF8040001A9FFF745FF6946D3
:109AF0000120FFF741FF04469DF800309DF8042047
:109B00000BA1002000F0B0FA06B02046BDEC028B9D
:109B100010BD0000713D6A3F0000000084D7B740CF
:109B2000000000000000F03F000000000000E03FE7
:109B30003C504341393638353E2063757272656E4C
:109B4000744D6F64652E313D203078253032582CAD
:109B5000202E323D3078253032582E0D0A0000007C
:109B600008B500210091062101EB80009DF801104D
:109B7000C0B221F010018DF801109DF803100422ED
:109B800041F010018DF80310694600F02DF808BD72
:109B900008B500210091062101EB80009DF801101D
:109BA000C0B241F010018DF801109DF8031004229D
:109BB00021F010018DF80310694600F015F808BD7A
:109BC0001CB500238DF8000006488DF80110022214
:109BD000846869464020A0478DF804009DF8040081
:109BE0001CBD0000582B00202DE9F041074614460B
:109BF0000E46501C07F01AFF05460770012004E0CE
:109C000016F8011B2954401CC0B2A042F8D90748DD
:109C1000641CE2B20023846829464020A047044621
:109C2000284606F035FC2046BDE8F081582B002080
:109C300070B54FF48076304608F06CFA114CB505DB
:109C400060B1304608F06DFA0120C5F8080360796C
:109C500020B9012060712168002088474FF4827686
:109C6000304608F057FA00280AD0304608F059FA72
:109C70000220C5F808032168BDE8704001200847AC
:109C800070BD0000C829002003220021014807F010
:109C900041BB000000B000402DE9F041164E4FF4EA
:109CA000A071304609F094FB0025EFF311844020A9
:109CB00080F31188D6F804758100304609F088FBDE
:109CC00010F0E8FB381A20F07F46012E07D910F07B
:109CD000D3FB022803D0002610F0E8FB0543761ED4
:109CE000FAD225B105494FF08050086040BFE0B27C
:109CF00080F31188BDE8F0810010014004ED00E020
:109D0000024808B50068009008BD00000445024004
:109D10000548016805484268891AC268806811448C
:109D200000EBD1007047000004450240142C0020D5
:109D300004220121014807F0EDBA00000040024072
:109D40001CB51F488178002939D10121817008F0A4
:109D50000DFA044602461BA1002000F085F934B933
:109D600008F0E8F918B11FA2B021FCF753FA00205F
:109D700008F022FA2249234AD1E90001CDE9000185
:109D800040F6FF70ADF800001D48694610300AF03B
:109D90005DF81B4810300AF04DF8194801211030C9
:109DA0000AF09AF8C82005F04FFF1748D0F80A00CB
:109DB000401D00F033F815A1002000F055F91CBD3E
:109DC000142C00203C5254433E207274632069736B
:109DD0002072756E696E673F20726574313D25751E
:109DE000200A00002E2E5C2E2E5C2E2E5C44726902
:109DF000766572735C6472765F7274632E630000C2
:109E000068B00300A9780300CB2A00203C525443D9
:109E10003E20496E69742E0D0A000000074910B5F6
:109E20000022CA60064A1268C1E9012005A100208B
:109E300000F01AF9BDE81040FFF760BC142C0020B8
:109E4000044502403C5254433E20525443325F5238
:109E500065666572656E636554696D653D25752E31
:109E60000D0A000005490968012301EBC00020F03C
:109E70007F420021024809F09BBF000004450240D8
:109E800078B003002DE9FE434FF48278404609F094
:109E9000B7FA4C4F00254C4C012600B3404609F060
:109EA000B7FA94F82E0010B194F82F10D1B18DF8B4
:109EB0000050616801912189ADF80810E26832B163
:109EC000218B618362602181E56010B102E025741D
:109ED00000E03E6021686846884784F82F5094F877
:109EE0002E0060B34FF48077384609F089FA30B31A
:109EF000384609F08DFA628B94F82D108A420AD9FF
:109F0000A2EB010080B260832289A2EB00006268AC
:109F100002EB400005E007D1E06828B184F82F602B
:109F2000658309F05BFA04E08A4202D184F82F606D
:109F30006583404609F06CFA2248001D06604FF424
:109F40008877384609F05CFA48B1384609F060FA7B
:109F5000257402208DF800002168684688474FF478
:109F60008A77384609F04CFA28B1384609F050FA99
:109F70002574BDE8FE834FF000484FF48C79676983
:109F80001DE000BFB7FA87F028FA00F109EB800561
:109F90008F43284609F034FA88B1284609F038FA88
:109FA000A5F58C75E8088DF8040045F38000401C89
:109FB0008DF800608DF80500216868468847002FFD
:109FC000E0D1D6E700700040BC3C002002F066BC47
:109FD000F8B50D4B0646144618780D4608B902F040
:109FE0005DFC00208DF80000684603F013FD22465A
:109FF0002946304600F00AF804469DF8000003F0B8
:10A000002DFD2046F8BD0000343A002070B50E4604
:10A01000144900EB400001EBC0051446E86A18350E
:10A0200020B101280FD0022805D113E0284602F004
:10A0300069FCA04201D2002411E0224631462846A4
:10A0400002F086FD0BE0284602F05CFCA042F4D250
:10A050000446F2E73146284602F04DFD044620460C
:10A0600070BD0000343A00200FB408B504A9009177
:10A070006A46039900F003F801B05DF814FB2DE97E
:10A08000F04198B0064607A8029040200025CDE98F
:10A090000305CDE9055690460C4614F8011B00292E
:10A0A00073D0252908D002A802F006FD05980028E3
:10A0B000F3DA18B0BDE8F081002001212278232ACC
:10A0C0001ED02B2A19D02D2A02D0302A08D102E026
:10A0D00040F0010001E040F00200641C0029EDD1D5
:10A0E00000222178A1F130030A2B0CD202EB82026C
:10A0F00001EB4202303A641CF3E740F00400ECE765
:10A1000040F00800E9E70023CFB22E2F0BD114F85E
:10A11000011FA1F130070A2F05D203EB830301EBE6
:10A120004303303BF3E76C290DD068290BD070292D
:10A1300054D00BDC252916D0582931D063290CD0F6
:10A14000642913D114E014F8011FECE7732934D00B
:10A1500075291BD0782909D122E0D8F80000011D0B
:10A16000C8F80010017802A802F0A6FC641C9DE764
:10A17000D8F800100F1DC8F800700968CDE900205C
:10A180000A2202A802F0CAFBF0E733E0D8F8001078
:10A190000F1DC8F800700968CDE900200A2208E008
:10A1A000D8F800100F1DC8F800700968CDE900202C
:10A1B000102202A802F016FCD8E7D8F80000011D12
:10A1C000C8F80010076817F8011B0029CED002A8B4
:10A1D00002F072FC05980028F5DAC7E7D8F800000D
:10A1E000011DC8F8001001680820CDE900050346EC
:10A1F0001022DEE7059800287FF75BAF049820B1B6
:10A20000024607A93046FFF7E3FEDDE904100844E3
:10A2100005904EE702494FF040200EF003BC0000CD
:10A220001C3D0020F8B51248124E04464FF48C71C4
:10A2300009F0D1FB00281AD00025C4F81851D4F831
:10A2400018010090F07F3446FF2806D0A17F11B19D
:10A2500008F07AFC01E008F085FC65772572D4E906
:10A26000002101B004F10800BDE8F0401047F8BD3E
:10A2700000300240EC3C002008B500200090094866
:10A28000694600680FF078FA0098002808D006495F
:10A290004FF08050086040BFBFF34F8FBFF36F8F08
:10A2A00008BD0000A02A002004ED00E010B5FFF773
:10A2B000D3FABDE810400520FFF752BC10B5FFF7F8
:10A2C000CBFAFFF727FBBDE810400520FFF760BC85
:10A2D0002DE9F84FFDF7AEFEFFF7E8FF924CD4F8FA
:10A2E0000300401CC4F80300E279EB2A16D08FA1CA
:10A2F0000020FFF7B9FEFEF785FB01F049F80024C6
:10A300004FEA0405FEF7BCFB88B1002400F076F9A3
:10A31000224692A10020FFF7A7FE18E098A1002096
:10A32000FFF7A2FEFF20E071FDF776FFF8E0641C66
:10A33000E4B21E2005F088FC6D1CADB2222DE1D3E5
:10A34000224686A10020FFF78FFE222C75D2FFF750
:10A35000B5FF00F07DFCFDF753F800F065F900252E
:10A36000FF26DFF838B2AA46A8460127A94600BF53
:10A37000FEF728FB062810D15C4689A134F8012F8E
:10A380000020FFF771FE2088322803D900F04CF935
:10A39000002702E008254FF0000A07F0EFFB8B4C86
:10A3A0002168401A05D510F1320F2DDAC4F800905B
:10A3B0002AE007F0E3FB1430206005B3BAF1000F88
:10A3C00012D08DF800908DF801904FF0000A8DF8B2
:10A3D000029069460E2001F09FF801F073F86D1E9F
:10A3E00015F0FF050AD00AE0FF208DF800008DF877
:10A3F00001004FF0010A8DF80290EAE7FF26FCF712
:10A40000E1FF60B14FF0000807F0B8FB6168401A47
:10A4100014D510F1320F2EDAC4F804902BE008F1B5
:10A42000010000F0FF08B8F1050FEDD94FF000086A
:10A43000FDF7F2FE00F0E2F8E6E76DE007F09EFBC4
:10A4400028306060FDF70EF89BF80000B04209D09C
:10A45000012822D0022829D0032835D001F024F881
:10A4600001F030F89BF8002059A116460020FFF7B4
:10A47000FBFD00F0D9FE08F043FF002F7FF478AF1A
:10A4800000F0BEFBFEF796FA00F02AFFFCF76CFF27
:10A49000FFF70CFFFFF710FA42E001F005F8FF208C
:10A4A0008DF8000048468DF8019006E000F0FCFFB2
:10A4B0008DF800908DF80190FF208DF8020069461C
:10A4C0000E2001F029F8CBE700F0EEFFFF208DF819
:10A4D00000008DF801908DF8029000244FF4FA7678
:10A4E000FF208DF8000069460E2001F015F800F0FD
:10A4F000E9FF304605F0A8FB8DF8009069460E2074
:10A5000001F00AF800F0DEFF304605F09DFB641C08
:10A51000E4B2042CE4D3A5E700F0E2FE00F084F8F6
:10A52000BDE8F84FFFF7CABECB2A00203C4D414999
:10A530004E3E53797374656D20496E2043686563A0
:10A540006B2E207265626F6F745F737461747573C4
:10A550003D3078253032582E0D0A00003C535953B7
:10A5600054454D3E204B657956616C756520446FAE
:10A57000776E2C6E203D25642C200D0A0000000013
:10A580003C4D41494E3E53797374656D20496E20B0
:10A590005265626F6F742E0D0A000000F02A0020D1
:10A5A0003C53595354454D3E204B45595F315F4C08
:10A5B0004F4E472E206261742E70657263656E7413
:10A5C000616765203D25642E0D0A0000F82A0020F1
:10A5D0003C53595354454D3E20636861726765533F
:10A5E00074617465203D25642E0D0A000249032024
:10A5F000C1F8000770470000240000504FF0A04150
:10A600004FF40070C1F80C0501A10020FFF72CBD2C
:10A610003C53595354454D3E20506F7765724F66F9
:10A62000662E0D0A000000004FF0A0414FF40070AC
:10A63000C1F8080501A10020FFF716BD3C5359538E
:10A6400054454D3E20506F7765724F6E2E0D0A00B7
:10A6500004A10020FFF708FD322005F0F5FAFFF70E
:10A66000CDF800005379735469636B5F48616E6481
:10A670006C65720D0A2E0D0A00000000F0B5B2489C
:10A680000023021D0178101D01254FF0805406297A
:10A690000BD11678360708D10678C6F30316032EB9
:10A6A00006D0042E04D0052E02D0062907D00EE0D5
:10A6B000B4F82463A54FC6F304263E6002E0167882
:10A6C000360704D10678C6F30316032E02D00629F6
:10A6D00004D00FE09F4F9E4E7E670EE0167836073F
:10A6E00008D10678C6F30316032E06D0042E04D034
:10A6F000052E02D0062907D00EE0D4F84462964F0A
:10A70000C6F342363E6002E01678360704D106787A
:10A71000C6F30316032E02D0062906D011E08F4E91
:10A72000376827F0807737600EE01678360708D153
:10A730000678C6F30316032E06D0042E04D0052E89
:10A7400002D006290AD011E04FF08046C6F80C313D
:10A75000C6F81031804E361F336002E01678360797
:10A7600004D10678C6F30316032E02D0062905D0BD
:10A770000CE0794F032664373E600AE0167836070E
:10A7800004D10678C6F30316032E02D006290DD095
:10A7900014E0734F05263E60714E78363560704E7A
:10A7A000083633603F263F1D3E6002E016783607CC
:10A7B00004D10678C6F30316052E02D0062957D019
:10A7C00062E0684E3668684F3E60664E361D3668F9
:10A7D0003F1D3E60634E083636683F1D3E60614E49
:10A7E0000C3636683F1D3E605E4E103636683F1DA3
:10A7F0003E605C4E143636683F1D3E60594E18363A
:10A800003668594F20373E60564E1C3636683F1D1D
:10A810003E60544E203636683F1D3E60514E243611
:10A8200036683F1D3E604F4E283636683F1D3E60FD
:10A830004C4E2C3636683F1D3E604A4E30363668E8
:10A84000494F40373E60474E343636683F1D3E60C4
:10A85000444E383636683F1D3E60424E3C363668C0
:10A860003F1D3E603F4E403636683F1D3E6002E071
:10A870001678360708D10678C6F30316032E06D0DD
:10A88000042E04D0052E02D0062907D019E0D4F8F2
:10A890005812364A01F04F01116002E011780907A1
:10A8A0000FD10078C0F30310032803D0042801D08F
:10A8B000052806D12E480168C90702D06FF00101B2
:10A8C0000160D4F83001062808D1D4F834010628F4
:10A8D00004D12848016841F4806101601F48743840
:10A8E000016841F470010160BFF34F8FBFF36F8FB8
:10A8F0004FF01021D1F80C02C00720D01E4A15607D
:10A900001E480468002CFCD0D1F80C4224F001044D
:10A91000C1F80C4201680029FCD0136001680029CD
:10A92000FCD0BFF34F8F0D48F0380168144A01F492
:10A93000E06111430160BFF34F8F00BFFDE7124993
:10A9400010480860F0BD0000E00F00F04035014005
:10A950000DF0ADBA00C007403C050040FCED00E042
:10A96000105600400404001020C50040E40E0040D2
:10A97000000400403C17004004E5014000E40140B1
:10A980000400FA050090D003842C00201CB500219F
:10A990008DF80010072800D90720012181408DF88B
:10A9A00000109DF800008DF80400044800230122E7
:10A9B000846801A97020A0471CBD0000482B00201E
:10A9C000F8B5124D01242878E8B9281D00688047A1
:10A9D0000F4A03214FF0A040C2F80017610501267D
:10A9E000C0F8081500F03AF800208DF8000068461D
:10A9F00000F02CF8044602469DF8003005A1002026
:10AA0000FFF732FB2E702046F8BD0000442B0020DB
:10AA1000540000503C54434139353438413E2049BC
:10AA20006E69742E207265743D25642C20726561F8
:10AA3000642063746C5F7265675F646174613D205C
:10AA4000307825303258200D0A00000002490122DA
:10AA50004B68014670201847482B002070B54FF016
:10AA6000A0444FF40015C4F80C55022004F5A1646D
:10AA700005F0F5F82560012070BD00007CB50125CA
:10AA800040482C02CDE90050002322463EA1404818
:10AA90000FF0C6FC012805D03EA240F2B3110420FD
:10AAA000FBF7B8FB374800231830CDE900502246A9
:10AAB0003EA140480FF0B4FC012805D035A240F279
:10AAC000B9110420FBF7A6FB2E480023001DCDE999
:10AAD0000050224638A13A480FF0A2FC012805D0C8
:10AAE0002CA24FF4DF710420FBF794FB25480023D0
:10AAF0000830CDE90050224632A134480FF090FCD6
:10AB0000012805D023A240F2C3110420FBF782FBE9
:10AB10001C4800230C30CDE9005022462CA12F48C0
:10AB20000FF07EFC012805D01AA24FF4E471042036
:10AB3000FBF770FB134800231430CDE90050224688
:10AB400027A12A480FF06CFC012805D011A240F281
:10AB5000CD110420FBF75EFB0A4800231030CDE93D
:10AB60000050224622A124480FF05AFC012808D0A8
:10AB700002B008A2BDE870404FF4E9710420FBF771
:10AB800049BB7CBDA82A00204C4F474745520000D6
:10AB90009D1803002E2E5C2E2E5C2E2E5C417070B4
:10ABA0005C7468726561642E630000004D41494E1B
:10ABB00000000000E51903004C494748540000001C
:10ABC000B5140300585443500000000051A803007E
:10ABD0004B45595F5343414E0000000041140300B0
:10ABE00043415254524944474500000039F50200A0
:10ABF000424154544552590069DE02000EF09ABE9B
:10AC00000C4810B50178002913D0002101700A48C2
:10AC100009F032FB084809F0BFFB4FF0E0214FF08C
:10AC20000060C1F88002BDE8104004A10020FFF7D9
:10AC30001BBA10BD082B002070AF03003C54494DD7
:10AC4000343E204465496E69742E0D0A00000000F0
:10AC50003EB51848017800292AD11749012404700B
:10AC6000D1E90201CDE9010104208DF80400134A65
:10AC700001A9114809F032FB18B111A26821FBF7B4
:10AC8000C9FA0D480068D0F810050021C2B2144876
:10AC9000FBF746FC0246012300210748009409F017
:10ACA00007FB054809F0F6FA0EA10020FFF7DCF9D2
:10ACB0003EBD0000082B002070AF03001589030083
:10ACC0002E2E5C2E2E5C2E2E5C447269766572737D
:10ACD0005C6472765F74696D65722E6300000000BB
:10ACE000801A06003C54494D343E20496E69742E4A
:10ACF0000D0A00002DE9F047104E062700244FF4FE
:10AD0000A0784FF4803900BF08EB840509FA04F0FD
:10AD1000715961B1D6F80413014208D02946304672
:10AD200008F084FE0648D0E9002128469047641CBC
:10AD3000E4B2BC42E8D3BDE8F087000000B00140B7
:10AD4000103D00200148006800470000D029002085
:10AD500010B5002817D0002915D00B4C0A46002149
:10AD6000A172014604F11C0007F0B4FA28B107A251
:10AD7000CB21FBF74FFA00E030BFE07A002802D089
:10AD8000A07A0028F8D010BD642B00202E2E5C2E57
:10AD90002E5C2E2E5C447269766572735C647276EA
:10ADA0005F756172742E63000C4810B5417899B1DB
:10ADB000002141701C300A4A0178515C19B1001D14
:10ADC00009F0F8FE02E00C3009F084FD05A1BDE8B1
:10ADD00010400020FFF748B907A1F8E7642B0020D6
:10ADE000BC2900203C554152543E204465496E69BF
:10ADF000742E0D0A000000003C554152543E20497B
:10AE000074277320616C7265616479204465496EB2
:10AE100069742E0D0A0000004FF4007070470000A6
:10AE200000487047D842002070B5374C88B0607831
:10AE300030B108B035A1BDE870400020FFF714B96B
:10AE4000E0790126002824D101200FF097F8A061B5
:10AE500028B1E67134A10020FFF706F90CE03BA110
:10AE60000020FFF701F90A2004F0EEFE41A24FF4A2
:10AE700091710120FBF7CEF945494FF40072A1F121
:10AE8000100002F098FC20B13AA24FF49471FBF745
:10AE9000C1F920223F496846FBF7AAFB0520009034
:10AEA00006200190C01F0290039017483A4A694655
:10AEB0001C3007F0CBF9051E04D02EA240F237114A
:10AEC000FBF7A8F90120E0720198401C13D09DF80F
:10AED0001D0040B90C48314A1C300178515C11B951
:10AEE0000C3009F077FC08490122093101F1130007
:10AEF00007F0E0F905462A4629A10020FFF7B4F83B
:10AF0000667008B070BD0000642B00203C554152B3
:10AF1000543E204974277320616C72656164792006
:10AF2000496E69742E0D0A003C554152543E2078FA
:10AF300053656D6170686F72654372656174654DCC
:10AF400075746578204F4B2E0D0A00003C55415218
:10AF5000543E207853656D6170686F726543726509
:10AF60006174654D7574657820204661696C7572F1
:10AF7000650D0A002E2E5C2E2E5C2E2E5C4472690E
:10AF8000766572735C6472765F756172742E6300AD
:10AF9000E8420020ACAF0300918E0300BC290020E2
:10AFA0003C554152543E20496E69742E6572725F61
:10AFB000636F6465203D25752E0D0A002DE9F04173
:10AFC0000E4C0646174660780D46A8B147F2305140
:10AFD000A0690FF067F92946304600F08FF838462F
:10AFE00000F00EF8002305461A461946A0690FF036
:10AFF0002FF82846BDE8F0810320FBE7642B0020F2
:10B000002DE9F0414FF000080546474601261F4C48
:10B010002BE0607988B1A089E0816169C0EB0020F4
:10B020000844217900F0ACF82379A289184900205E
:10B03000FFF71AF826E02E701CE0E0896269C0EB89
:10B040000020FF21104400F09BF8FF23E28911A1AA
:10B050000020FFF709F8E089401C80B2E081A18957
:10B06000884202D3207940B16671A07910B160782E
:10B070000028CED14046BDE8F081E28912A100202F
:10B08000FEF7F2FFA771002DD5D1F3E7642B002066
:10B09000A4CD03003C554152543E207061636B6562
:10B0A000745F756172745F73656E645F696E646509
:10B0B00078203D25642C2053656E64206C656E20DD
:10B0C0003D2025642E0D0A003C554152543E20700F
:10B0D00061636B65745F756172745F73656E645FE5
:10B0E000696E646578203D25642C46696E697368D5
:10B0F0002053656E642E0D0A0000000038B5FF2352
:10B10000B1FBF3F2B1FBF3F50C4C03FB15136061DB
:10B11000A28100252371E58101216AB184F80550DF
:10B1200052EA030501D000B1A171A079009004A1F9
:10B130000020FEF799FF38BD6171F1E7642B002014
:10B140003C554152543E207061636B6574207365B9
:10B150006E6420707265706172652C206C656E3D46
:10B1600025642C2072656D61696E5F6C656E3D258E
:10B17000642C2073746172743D25642E0D0A0000E6
:10B1800070B50D4A5378002B15D0D27A1AB1BDE8AC
:10B190007040FFF7DDBD06000D460CD0002D0AD033
:10B1A000002406E0305D00F009F80028FAD1641CA4
:10B1B000E4B2AC42F6D370BD642B00200D4910B54B
:10B1C000087001F114000C4A01781124515C19B186
:10B1D000001D09F0E1FC02E00C3009F06BFB30B916
:10B1E0000449012201F1140007F074F804462046D6
:10B1F00010BD00006C2B0020BC29002004A1002001
:10B20000FEF732FF322004F01FFDFEF7F7FA0000D0
:10B2100055736167654661756C745F48616E646CF7
:10B2200065720D0A2E0D0A000148007809F03CBD38
:10B23000242C002038B5064C20680025002805D0B5
:10B2400004484068804725602068009038BD0000B1
:10B2500000010140982A00200EB51349C8684969C9
:10B26000009001208DF8000042F2107002910190D0
:10B2700068460E4909F032FD18B10DA23821FAF7DF
:10B28000C9FF124809F0EEFC18B109A23A21FAF7F9
:10B29000C1FF09F015FD0D48007809F005FD0CA16E
:10B2A0000020FEF7E1FE0EBD80B00300919A03007E
:10B2B0002E2E5C2E2E5C2E2E5C4472697665727387
:10B2C0005C6472765F7764742E630000242C002027
:10B2D0003C5744543E20496E69742E0D0A0000000C
:10B2E00070B50C4CE078002813D00025E57000F014
:10B2F000DBF800F0E7F8A07800280AD0A57008F085
:10B30000F5FC08F005FDBDE8704003A10020FEF744
:10B31000ABBE70BD182B00203C4932533E20446523
:10B32000496E69742E0D0A0070B506460F2905D3C3
:10B33000BDE870400AA10020FEF796BE1AB1881839
:10B3400085B20F2D00D90F250C4605E03146204669
:10B3500000F0E2F8641CA4B2AC42F7D370BD000068
:10B360006669727374204E756D20697320256420A0
:10B370000D0A000010B504210348FDF7DFFABDE80F
:10B380001040012004F060BC004200200F207047F4
:10B3900070B51D4CE078002835D10125E570FDF72A
:10B3A0002FFA6079002818D101200EF0E7FD206106
:10B3B000E06828B1657115A10020FEF755FE0CE08C
:10B3C0001EA10020FEF750FE0A2004F03DFC28A23A
:10B3D0004FF4E7710120FAF71DFFFFF7CBFF0020C4
:10B3E0002B4A014613181154401C83F8971040282B
:10B3F000F8D300F059F800F065F8BDE8704025A1D9
:10B400000020FEF731BE70BD182B00203C57533290
:10B41000383132423E20777332383132625F7853AE
:10B42000656D6170686F72654372656174654D75B5
:10B43000746578204F4B2E0D0A0000003C575332A4
:10B44000383132423E20777332383132625F78537E
:10B45000656D6170686F72654372656174654D7585
:10B46000746578204661696C7572650D0A0000008C
:10B470002E2E5C2E2E5C2E2E5C44726976657273C5
:10B480005C6472765F777332383132622E6300000B
:10B49000004200203C575332383132423E20496E40
:10B4A00069742E0D0A00000038B50024254669464F
:10B4B0002046009500F030F8641CE4B20F2CF6D35F
:10B4C00038BD000010B50C4C0A4920690EF0EAFEA8
:10B4D000D7210A48FDF732FA18B109A10020FEF77A
:10B4E000C3FD00232069BDE810401A4619460EF03E
:10B4F000AFBD000000350C00182B002000420020DA
:10B500003C4932533E2053656E6442756620466165
:10B51000756C742E0D0A0000F8B5444C0D460646B5
:10B520004FF4FA5120690EF0BDFE0F2E76D206EBD5
:10B53000C600103086B268788DF8000028788DF843
:10B540000100A8788DF80200394DA0680023EC4670
:10B5500003EB43011CF803208FB2110602D54FF014
:10B56000060E01E04FF0040E01686EF35F7101609A
:10B570005FEA426E02D54FF0060E01E04FF0040E76
:10B580006EF39C6101605FEA826E02D54FF0060E99
:10B5900001E04FF0040E6EF3D95101605FEAC26E14
:10B5A00002D54FF0060E01E04FF0040E6EF3165177
:10B5B00001605FEA027E02D54FF0060E01E04FF017
:10B5C000040E6EF3534101605FEA427E02D54FF0F4
:10B5D000060E01E04FF0040E6EF3903101605FEA59
:10B5E000827E02D54FF0060E01E04FF0040E6EF39E
:10B5F000CD210160D20701D0062200E0042262F3CF
:10B600000A210160F119C2786A54294482784A708B
:10B610005B1C42789BB28A70032B99D300231A4695
:10B62000194620690EF014FDF8BD0000182B00200B
:10B63000004200202DE9F8430746002098461646B0
:10B640000C46012500900BE005FA04F0384201D0C9
:10B65000414600E069462046FFF75EFF641CE4B205
:10B66000B442F1D3BDE8F8837CB50024ADF80040C6
:10B670001C4D8DF804401A4828601B4868601B4820
:10B68000C5F818021A48C5F81C02ADF80040284653
:10B6900001F0A4F8ADF80000BDF8000070B1154845
:10B6A0000078032804D1FF20FDF70AFCFBF71EFFFA
:10B6B000B5F8161201AA1048FFF780FCADF800405B
:10B6C0000E4801F08BF8ADF80000BDF8000000282E
:10B6D00005D0B5F82E1401AA0948FCF7B1F87CBDD5
:10B6E00019AE0200803D002021AE0200B9760200B2
:10B6F000C1760200ED2A0020943E0020983F0020F1
:10B70000AC4000201CB58DF80420009301AB012251
:10B7100000F001F81CBD2DE9F05F9B460A9D16461E
:10B720008A468146B5B100242746B01D06F07EF951
:10B730007E23037080F8019080F802A0C670310A61
:10B74000017105214FF001084FF002094FF0030A83
:10B7500000220AE00020BDE8F09F1BF802C000F8BC
:10B7600001C0491C521C89B292B2B242F5D30122E7
:10B7700003E0865C7740521C92B28A42F9D3475468
:10B78000491C89B27F264654491C8AB22B55012197
:10B790007D27521E641C0BE0435C7D2B11D07E2B59
:10B7A00015D07F2B1BD02B55641CA4B2491C89B229
:10B7B0009142F1DB2E55641CA4B204F069FE2046D0
:10B7C000C9E72F55641CA3B205F8038004E02F5588
:10B7D000641CA3B205F803905B1C9CB2E6E72F55EE
:10B7E000641CA3B205F803A0F6E700007CB516467A
:10B7F0000C4605460B46024607490020FEF734FC7E
:10B80000ADF80450ADF8064001AB04220621E1205A
:10B810000096FFF780FF7CBDECC803002DE9F047E0
:10B820000446007800268EB0174688467E2805D14B
:10B8300004EB080010F8010C7F2803D000200EB0A4
:10B84000BDE8F087002501204FF07F0AA8F1010133
:10B8500006E04319E25C7D2A1CD02254401C80B2D1
:10B860008842F6DB2B464246ECA10020FEF7FCFBAB
:10B87000A8EB050082B2A318072A03F801AC2AD26C
:10B88000F2A10020FEF7F0FB00231A4603210097E7
:10B89000E120CBE003EB040999F80120012A10D044
:10B8A000022A10D0032A11D0F4A10020FEF7DCFBFD
:10B8B00099F8010001228DF8040001AB07210097DF
:10B8C000E6E77D2200E07E22225401E004F800A099
:10B8D0006D1CEDB2C2E701204FF00008911E03E09D
:10B8E000255C401C85EA08088842F9DB13F8025CF5
:10B8F00045450ED043462A46EEA10020FEF7B4FB94
:10B900008DF8045002228DF8058001AB01210097CB
:10B91000BEE7D51FB4F80320AA420FD02B46F5A1ED
:10B920000020FEF7A1FBB4F80300ADF804000422E8
:10B93000ADF8065001AB02210097A9E794F801A0E9
:10B9400094F80280641D5046BAF1200F71D004DCD7
:10B9500090B1BAF1100F05D1BCE030286AD0BAF12D
:10B96000710F68D00246F3A10020FEF77DFB002393
:10B970001A46042100978BE74046B8F1060F7DD2A6
:10B98000DFE808F0A5030D385A88F5A10020FEF77E
:10B990006BFB02F071FF002800D0E02627E3F9A13D
:10B9A0000020FEF761FB0021002D68D1FF488DF8D3
:10B9B00004600B2201788DF8051041788DF806108F
:10B9C00080788DF80700FA4801788DF808104178E2
:10B9D0008DF8091081788DF80A10C1788DF80B1058
:10B9E00001798DF80C1041798DF80D1080798DF862
:10B9F0000E004CE0EF4CF0A10020B4F801302278AA
:10BA0000FEF732FBFC498DF8046008788DF80500DC
:10BA1000401C087020788DF80600B4F801000A2157
:10BA2000B0FBF1F08DF80700042230E0FFF773FE61
:10BA300005E79BE0DFE2EBE3F0A10020FEF714FB5B
:10BA40004FF080508DF8046050F8A41F8DF8051059
:10BA50000168090A8DF806100168090C8DF80710B5
:10BA60000168090E8DF8081041688DF809104168C9
:10BA7000090A8DF80A104168090C01E027E0C0E0CE
:10BA80008DF80B104068000E8DF80C00092201ABF8
:10BA9000009752E3E3A10020FEF7E6FAE849EB2025
:10BAA000C871FCF7B9FBE7A10020FEF7DDFA0A2018
:10BAB00004F0CAF8BFF34F8FE9480168E94A01F47E
:10BAC000E06111430160BFF34F8F00BFFDE7024605
:10BAD000E5A108E04046B8F1010F0CD0B8F1020F23
