:020000022000DC
:106000000000012079630200955A030063630200D7
:106010007D5A0300655A03004D5A0300000000003A
:1060200000000000000000000000000069F603000E
:10603000355A03000000000089F60300AD5A030042
:10604000B9A802007363020065AE02007363020028
:10605000ED430300736302001DA902007D380300B5
:106060007363020073630200736302001537030059
:1060700073630200736302007363020073630200C0
:10608000354D030051F40300736302007363020093
:1060900073630200736302002DF703007363020051
:1060A0007363020073630200736302009D41030087
:1060B0007363020073630200000000000000000030
:1060C000736302007363020073630200853F030081
:1060D000C93703001D510300736302000000000074
:1060E00000000000000000000000000000000000B0
:1060F00000000000000000000000000000000000A0
:10610000000000000000000000000000000000008F
:10611000000000000000000000000000000000007F
:10612000000000000000000000000000000000006F
:10613000000000000000000000000000000000005F
:10614000000000000000000000000000000000004F
:10615000000000000000000000000000000000003F
:10616000000000000000000000000000000000002F
:10617000000000000000000000000000000000001F
:10618000000000000000000000000000000000000F
:1061900000000000000000000000000000000000FF
:1061A00000000000000000000000000000000000EF
:1061B00000000000000000000000000000000000DF
:1061C00000000000000000000000000000000000CF
:1061D00000000000000000000000000000000000BF
:1061E00000000000000000000000000000000000AF
:1061F000000000000000000000000000000000009F
:10620000364937480A1A02D0072291438D4635494C
:1062100035480A1A06D00722914381F309880222E1
:1062200082F3148831483249324A00F045F8324846
:106230003249334A00F040F832483349334A00F0DB
:106240003BF833483349344A00F036F83348344990
:10625000344A00F031F834483449354A00F02CF81B
:1062600034483549354A00F027F835483549002289
:1062700000F02DF834483549002200F028F8344861
:106280003449091A082903DB002202600430016046
:10629000314A90471F482049884205D0026804309F
:1062A00003B4904703BCF7E700208646EC46002085
:1062B00000212A4A9047FEE7884207D0521A05D0AB
:1062C000037801300B700131013AF9D170478842EF
:1062D00002D002700130FAE7704700000000012090
:1062E00000E000200000012000000120C86404003C
:1062F000FC280020A0290020D8630200D8630200F7
:1063000084110400C8640400FC280020FC2800203C
:1063100058130400581304005813040058130400C1
:1063200058130400581304005813040058130400B1
:10633000C86404006C650400A0290020A029002086
:10634000A0290020BC820020BC820020BC8200204A
:10635000BC820020BCA20020A1630200E9BB0200B5
:10636000FEE7FEE7FEE7FEE7FEE7FEE7FEE7FEE705
:10637000FEE7FEE7704700BF1048804710484FF027
:106380000701884385460F4880470F48016841F45C
:1063900070010160BFF34F8FBFF36F8FFFF730BF06
:1063A0000A480B490B4A884207D0521A05D0037895
:1063B00001300B700131013AF9D170477563020069
:1063C00000000120F972020088ED00E0441304008F
:0863D000E8280020FC28002051
:1063D800704700BF00B583B0044B0093044A4FF4E4
:1063E800807300F035F803B05DF804FBFD6302002C
:1063F800A429002002B32DE9F843114B114E884619
:10640800144643F0010903270025224608EB05013D
:10641800002005F057FC03461D444FF47A40E41A67
:1064280023B9337833B1C847013F06D0012333700D
:10643800002CEAD1BDE8F88370473770BDE8F883CF
:1064480060130400A0290020704700BF05F0E0BDDC
:10645800F0B595B0002415460F4608461E4603F0D1
:1064680005FF384623460895082205A91A9D09966E
:106478000D950A948DF82C400C9403F051FF9DF86B
:1064880014308DF81140DDE9061003F00302012AEB
:10649800CDE9020127D0022A04D0384603F0EAFEEB
:1064A80015B0F0BDBDF81650C3F3C2038DF8103017
:1064B800AD090826082D2C4628BF08243346224655
:1064C8000EA9384603F02CFF2D1B214608AB02AA63
:1064D8000EA8264400F060FE002DEBD1384603F0EC
:1064E800C9FE15B0F0BDBDF81460059DC6F383164E
:1064F800C3F3C204B2000EA9384608238DF8104031
:10650800C5F3952503F00CFF08AB324628460EA9C3
:10651800009302AB00F098FD384603F0ABFE15B0CF
:10652800F0BD00BF08B5FFF791FF0421034800F054
:1065380047FD034B01225A7108BD00BF2013040018
:10654800FC280020F0B5324C85B004F5836002F0D9
:106558008FFD04F2144002F08BFDD4E9013703EA01
:106568000702D01C04EB800114F8200010F004008E
:1065780044D003F1020C0E7806F00306012E65469E
:1065880035D0022E02F1030621D004EB8601002843
:10659800F1D104EB82020133D26801923B4004EB53
:1065A800830302F00302012ADE6829D0022A23D1DC
:1065B800BDF806309B090333360C05EB93051548E7
:1065C80002F062FD00B16560304605B0F0BD4B8851
:1065D8000CEB931307EA0302D11C03F1020C14F825
:1065E8002100654604EB810100F00400CFE70B8829
:1065F800C3F383136344EDE70026E0E79D1CC8E777
:10660800BDF80430C3F38313360C1D44D7E700BF2D
:10661800742B0020882F00200B4B0C4810B500224B
:10662800FF21C3F818249960C3E90022C3F8142491
:1066380083F8202403F0D6FD044610B9044803F07B
:1066480029FF204610BD00BF742B00203013040022
:106658008413040021B9124B03EBC0000068704793
:10666800104A0F49521AD20815D030B40E4D2B8853
:10667800834212D0002303E035F82340844205D03A
:1066880001339A42F8D1002030BC704701EBC300B7
:10669800006830BC7047104670470846F8E700BFEE
:1066A800F8110400F0120400E8280020094B013911
:1066B80003EBC00003290BD8DFE801F00208060449
:1066C800022070474079704700797047042070476E
:1066D80000207047F81104002DE9F04383B002ABA5
:1066E800002203F8012DDFF8DC900746184688469B
:1066F800D9F8084001F076F8D9E90132D9F80060F4
:10670800134401339B1B012B57D809F21C45012167
:10671800284602F089FCFFF715FF0146284602F0DB
:1067280083FCD9E90132D9F80010134401335B1A0C
:10673800012BECD90A400332052302319DF80700EA
:1067480049F82230C9F8001001F072F800211C48FD
:1067580002F030FC80F31000731C234009EB830324
:1067680000043440033440EA1740D86019F8243054
:1067780067F3C50309F8243039F824306FF3891317
:1067880029F8243059F8243068F39F2349F8243035
:10679800012262F3010399F820246FF3820309F8B8
:1067A80024301AB906E000F00FF818B1D9E9003220
:1067B8009A42F8D103B0BDE8F0833146BAE700BF8A
:1067C800902F0020742B00202DE9F047934C0023D4
:1067D80084B0C4F81834BFF34F8FD4E9015605EAE2
:1067E8000602D31C04EB830114F82330580719D58B
:1067F80027680B7803F00303012B43D0022B03D146
:106808004B88023505EB931506EA0502D4F81804FF
:10681800D31C04EB830128B9AF4239D914F82330CB
:106828005B07E6D404EB82026B1CD268019233400A
:1068380004EB830302F00302DB680293022A05F1EA
:10684800020700F08D80012A26D0D4F810543DB1FB
:106858002B6828469B689847EB681D68002DF7D180
:106868006F48704B7049C01AC008000440F002001D
:10687800FFF732FFD4E90030C01A18BF012004B076
:10688800BDE8F0870B880235C3F383131D44BBE7CB
:10689800676004B0BDE8F087BDF804206348C2F320
:1068A8008313062B28BF062363F38912023399004A
:1068B800ADF8042003F098FC80460028C5D003F00A
:1068C800D5FC0023082201A9404603F0F5FCBDF8D9
:1068D800043013F4707F00F09F806FF0010AAAEB78
:1068E800050A082506EA070103312B46042204EBB2
:1068F8008101404603F0E0FCBDF8043007F10109CE
:106908000AEB0902C3F3831393424F4605F10405CA
:10691800E8D8D4F81834002B68D1D4F8105465B1ED
:10692800EB685A7928464146002A5BD02B681B68D9
:106938009847EB681D68002DF2D1404603F09AFC99
:1069480004A8002300F80D3D00F04CFFD4F81834DB
:106958000BB9C4F804909DF8030000F069FF89E7BB
:10696800BDF8063031484FEA93194D46502D28BFDF
:10697800502565F38F1305F10801ADF8063003F0D3
:1069880033FC804600283FF460AF26EA070A0AF184
:10699800010A03F06BFC4FEA8A0A0023082201A9C6
:1069A800404603F089FC55452BD9EBB2BAF1000FEC
:1069B80020D006EA0701A3EB0A03033104EB8101A7
:1069C800DDB252460823404603F076FC2A460AF117
:1069D80008031749404603F06FFC09F1030907EB68
:1069E800990996E71D68002D9AD1A6E7404603F05D
:1069F80041FC3FE72A4608230D49404603F05CFC6A
:106A0800EBE706EA0701033104EB81012A46082374
:106A1800404603F051FCE0E7B9467AE7742B0020C2
:106A280058120400F81104009013040030130400F5
:106A3800802B00202DE9F04782B002AB002403F838
:106A4800014DDFF8E8A00746184691468846DAF86F
:106A5800084000F0C7FEDAE90132DAF800601344B2
:106A680001339B1B022B5DD80AF21C4501212846E5
:106A780002F0DAFAFFF766FD0146284602F0D4FA7A
:106A8800DAE90132DAF80010134401335B1A022BF9
:106A9800ECD90A400332033145239DF807004AF830
:106AA8002230CAF8001000F0C3FEB31C23400AEBE2
:106AB800830300211C48C3F80C9002F07BFA80F392
:106AC8001000731C23400AEB830300043440033492
:106AD80040EA1740D8601AF8243067F3C5030AF86B
:106AE80024303AF82430012262F389132AF824303A
:106AF8005AF8243068F39F234AF8243062F30103DC
:106B08009AF820246FF382030AF824301AB906E0B1
:106B1800FFF75AFE18B1DAE900329A42F8D102B00A
:106B2800BDE8F0873146B4E7902F0020742B002091
:106B38002DE9F04F83B002AD002405F8014D3B4C20
:106B48008046284693469A468946A56800F04AFE3C
:106B5800D4E90132276813440133DB1B032B62D8C5
:106B680004F21C460121304602F05EFAFFF7EAFC07
:106B78000146304602F058FAD4E90132216813443C
:106B880001335B1A032BEDD90A400332852344F8FD
:106B9800223004319DF80700216000F049FEBA1C3C
:106BA800FB1C2A402B4004EB820204EB83030021E8
:106BB8001F48C2F80CB0C3F80CA002F0FBF980F330
:106BC80010007B1C2B4004EB830300043D4003357D
:106BD80040EA1840D86014F8253068F3C50304F873
:106BE800253034F82530022262F3891324F8253041
:106BF80054F8253069F39F2344F82530012262F3C5
:106C0800010394F820246FF3820304F825301AB99D
:106C180006E0FFF7D9FD18B1D4E900329A42F8D15D
:106C280003B0BDE8F08F3946AEE700BF742B0020F3
:106C3800902F00202DE9F04F83B002AE002406F813
:106C4800014D3E4C8046304693469A46A568894693
:106C580000F0C8FDD4E90132276813440133DB1B77
:106C6800042B68D804F21C460121304602F0DCF9F6
:106C7800FFF768FC0146304602F0D6F9D4E9013244
:106C88002168134401335B1A042BEDD90A400332FF
:106C9800C52344F8223005319DF80700216000F033
:106CA800C7FDB81CFA1C28402A403B1D2B4004EBAA
:106CB800800004EB820204EB8303C0F80CB00021CF
:106CC800C2F80CA01E480C9ADA6002F073F980F33F
:106CD80010007B1C2B4004EB830300043D4003356C
:106CE80040EA1840D86014F8253068F3C50304F862
:106CF800253034F82530032262F3891324F825302F
:106D080054F8253069F39F2344F82530012262F3B3
:106D1800010394F820246FF3820304F825301AB98C
:106D280006E0FFF751FD18B1D4E900329A42F8D1D4
:106D380003B0BDE8F08F3946A8E700BF742B0020E8
:106D4800902F00202DE9F04F87B006AE002406F8FA
:106D5800114D444C109F0497CDE902238046994673
:106D68003046119B05939246A5688B4600F03AFD84
:106D7800D4E90132276813440133DB1B052B6FD894
:106D880004F21C460121304602F04EF9FFF7DAFB07
:106D98000146304602F048F9D4E90132216813442B
:106DA80001335B1A052BEDD90A40033240F2051373
:106DB80044F8223006319DF807002160FE1C00F0DF
:106DC80037FDB91C29402E403A1D2A4004EB8101A9
:106DD80004EB86067B1D2B4004EB8202C1F80CA055
:106DE80004EB8303C6F80C90109ED6600021119A1C
:106DF8001D48DA6002F0DEF880F310007B1C2B409F
:106E080004EB830300043D40033540EA1840D86092
:106E180014F8253068F3C50304F8253034F8253014
:106E2800042262F3891324F8253054F825306BF3D3
:106E38009F2344F82530012262F3010394F82024AB
:106E48006FF3820304F825301AB906E0FFF7BCFC9B
:106E580018B1D4E900329A42F8D107B0BDE8F08FF2
:106E68003946A1E7742B0020902F00202DE9F04F20
:106E780087B006AE002406F8154DCDE90123484C2D
:106E8800109F03979946119B04938046129B059384
:106E980030469246A5688B4600F0A4FCD4E901323E
:106EA800276813440133DB1B062B76D804F21C46F3
:106EB8000121304602F0B8F8FFF744FB014630469E
:106EC80002F0B2F8D4E901322168134401335B1AA5
:106ED800062BEDD90A40033240F2451344F822301C
:106EE80007319DF8030021603E1D00F0A1FCB91C8C
:106EF800F81C294028402E407A1DBB1D2B402A40F3
:106F080004EB810104EB800004EB860604EB8202AB
:106F180004EB830C109BC1F80CA0C0F80C90F36034
:106F2800119BD3600021129B1E48CCF80C3002F054
:106F380041F880F310007B1C2B4004EB8303000412
:106F48003D40033540EA1840D86014F8253068F30E
:106F5800C50304F8253034F82530052262F3891377
:106F680024F8253054F825306BF39F2344F8253056
:106F7800012262F3010394F820246FF3820304F8DA
:106F880025301AB906E0FFF71FFC18B1D4E9003222
:106F98009A42F8D107B0BDE8F08F39469AE700BFAA
:106FA800742B0020902F0020044BD3E900239A4231
:106FB80001D0FFF709BC0020704700BF742B0020E8
:106FC80070B4154ED6F810540021E5B1EC68237959
:106FD8008B4210D0234603E0DB681A798A420AD034
:106FE8001B68002BF8D1C368197122681A602060E9
:106FF800084670BC704701310A29E6D14FF0FF31CD
:10700800084670BC7047C3681971C6F810041D6043
:10701800084670BC704700BF742B002038B5094B78
:10702800D3F81044012583F820544CB12368E26852
:107038005B68557120469847E3681C68002CF5D1B9
:1070480038BD00BF742B00202DE9F04784B01D46E1
:107058000C9CDB8894F80C804FF0000C81460E469F
:10706800174684F80CC0002B40D1297A05290ED088
:107078006B7AA88873BB404B53F821A00021FFF717
:10708800E9FA524603463D49204602F073F8062FB6
:1070980009D8DFE807F0046A4249525D33004946DF
:1070A800204602F067F82B7A052B05D06B7A5BB97E
:1070B8003349204602F05EF8204602F04FF884F883
:1070C8000C8004B0BDE8F0872E4A2F49204602F014
:1070D80051F8EDE7FFF7EAFA2C4B2B4953F820203B
:1070E800204602F047F8297AA888C4E7254A009282
:1070F8002749284A204602F03DF8B6E7D6E90410A9
:10710800D6E900230390D6E902070291CDE90007EA
:107118004946204602F02EF8C5E74946D6E900233D
:10712800204602F027F8BEE7B168D6E900232046DA
:107138000091494602F01EF8B5E7D6E90201D6E902
:107148000023019100904946204602F013F8AAE76F
:10715800D6E90371B068D6E900230291CDE90007AA
:107168004946204602F006F89DE73268494620461F
:1071780002F000F897E700BF141404000814040094
:107188004852040000140400EC2D0400A813040065
:10719800E8130400E0130400082900D970472DE91A
:1071A800F04F1D46D38895F80CA09046002285B074
:1071B80007460E462A73002B78D198F8081005293F
:1071C80011D098F80930B8F80400002B60D13B4B77
:1071D80053F821400021FFF73DFA2246034638497B
:1071E800284601F0C7FFDFF8F8B0DFF8F890002470
:1071F80005E03A5D013401F0BDFF082C09D0A64234
:1072080049462846F5D85946013401F0B3FF082C01
:10721800F5D12C49DFF8D0B0DFF8D090284601F03E
:10722800A9FF00240AE03A5D7E2A23D92E22494686
:107238002846013401F09EFF082C08D0A642F2D857
:1072480059462846013401F095FF082CF6D198F8E4
:107258000830052B02D098F809309BB91A492846FE
:1072680001F088FF284601F079FF85F80CA005B0E9
:10727800BDE8F08F1046039218F078FE039A0028B4
:10728800D5D1D3E7114A1249284601F073FFE5E743
:10729800FFF70CFA0F4B0E4953F82020284601F04F
:1072A80069FF98F80810B8F8040090E7074A0092B8
:1072B80009490A4A284601F05DFF7EE714140400D4
:1072C80008140400D81304004852040000140400F1
:1072D800EC2D0400A8130400E8130400E0130400D4
:1072E800D4130400CC13040010140400DC130400AD
:1072F800B54B1B78062B30B41AD0B44B1B68062B41
:107308007ED0B34AD2F8883043F47003C2F888308C
:10731800BFF34F8FBFF36F8F4FF01023D3F80C32AA
:10732800DB0700F18181AB4BAB4A1A6030BC704778
:10733800AA4B1B681D07E0D1A94B1B6803F0F0029C
:10734800302A00F09C8003F0E003402B00F0978087
:10735800A34B1B6803F0F003302B00F0C780A04B51
:107368001B6803F0F002302A79D003F0E003402BC9
:1073780075D09B4B1B6803F0F003302B00F0A68000
:10738800974B1B6803F0F002302A55D003F0E00356
:10739800402B51D0924B1B6803F0F003302B00F0C8
:1073A800B3808F4B1B6803F0F003302B77D08C4BE6
:1073B8001B6803F0F003502B00F0B480884B1B6867
:1073C80003F0F002302A26D003F0E003402B22D04D
:1073D800834B1B6803F0F002302A03D003F0E0036C
:1073E800402B8AD14FF08043D3F80024D20744BF02
:1073F8006FF00102C3F80024744B1B68062B80D180
:10740800784B1B68062B7FF47CAF774A136843F4EC
:107418008063136075E7754B754A1B6803F04F036B
:107428001360694B1B78062B7FF467AF6B4B1B68A7
:1074380019077FF462AFCBE74FF080430022C3F80F
:107448000C21C3F81021C3F838255F4B1B78062B95
:10745800E7D1624B1B681B077FF44FAF9AE7654B78
:10746800594A1B6812786449C3F34233062A0B60F1
:1074780021D15A4B1B6819077FF43FAF79E75F4B5F
:10748800514A1B6812785E49C3F30423062A0B602D
:10749800DBD1524B1B681C077FF42FAF58E7594AC2
:1074A800594C5A495A4B05201060012500203F22AB
:1074B800256008601A60444B1B78062B7FF41DAFCB
:1074C800464B1B681C077FF418AF70E751493E4BC9
:1074D800CA681B7822F08072062BCA607FF40DAF51
:1074E8003E4B1B681A077FF408AF49E7364B4A4AF8
:1074F8001B784A491160062B7FF4FFAE374B1B6897
:1075080018077FF4FAAE2AE72F4B454A1B78032168
:10751800062B11607FF4F1AE304B1B681D077FF41A
:10752800ECAE3EE74FF080533E4AD3F80414C2F85D
:107538002015D3F80814C2F82415D3F80C14C2F88F
:107548002815D3F81014C2F82C15D3F81414C2F85F
:107558003015D3F81814C2F83415D3F81C14C2F82F
:107568004015D3F82014C2F84415D3F82414C2F8EF
:107578004815D3F82814C2F84C15D3F82C14C2F8BF
:107588005015D3F83014C2F85415D3F83414C2F88F
:107598006015D3F83814C2F86415D3F83C14C2F84F
:1075A8006815D3F840140848C2F86C15D3F8441489
:1075B8000378C2F87015062B7FF49FAE074B1B6843
:1075C80018077FF49AAEF9E6E00F00F030010010DA
:1075D80000ED00E0042900200090D003E40F00F043
:1075E800E80F00F0340100103C170040580200106A
:1075F800E40E0040440200103C0500402403001043
:10760800403501401056004088560040185600404A
:1076180014560040F0ED00E074C007400DF0ADBA1C
:10762800A005004000C00040144B0122C3F8042507
:10763800D3F80024002AFBD04FF010210F4AD1F8CC
:107648000C3223F00103C1F80C32D2F80034002BBD
:10765800FBD000230949C2F80435D1F80034002BC7
:10766800FBD0BFF34F8F0649064BCA6802F4E062AD
:107678001343CB60BFF34F8F00BFFDE700E001402D
:1076880000ED00E00400FA0530B482B001248DF862
:107698000740154B9DF80750186044F20104A042BA
:1076A80059609A6014D044F20201884208D072B638
:1076B8009DF80730002BFBD162B602B030BC704792
:1076C800DA60DA6812889A61DA685268DA61EEE795
:1076D8001A611A6992685A611A6912689A611A6974
:1076E8005268DA61E3E700BFB030002000B583B02C
:1076F80002900091019244F2010071466A4600F03E
:1077080003F803B000BD00BF2DE9F041054684B081
:107718000F46164672B6FFF781FCFFF745FC0028B6
:10772800FBD1274B274CE41AE40841F20103240457
:107738009D4244F001043DD02FD944F201039D42FB
:1077480016D044F202039D422ED120463388726837
:107758001D49FFF7EDF91D4B1B68DB0700D500BE7F
:1077680032463946284604B0BDE8F041FFF78CBFE1
:10777800D6F80880404602F0ADFE33681449CDE9DA
:10778800013773680093424603462046FFF76EFBB5
:1077980020461049FEF7A0FFDDE7012D04D1204661
:1077A8000D49FEF799FFD6E720463A460B49FFF701
:1077B80041F9D0E720460A49FEF78EFFCBE700BF24
:1077C800F811040058120400C4140400F0ED00E09D
:1077D800E014040008150400801404001C150400BB
:1077E800A014040070B4EFF3108472B60D4B9A68BD
:1077F800AAB90D490D4E01259D60D1F8805035403C
:107808001D60C1F88060D1F884505D604FF0FF338F
:10781800C1F88430027004B962B670BC70470123A5
:107828000370F8E7D030002000E100E0FC06FFBD5F
:10783800094B9A687AB170B910B4EFF3108172B637
:10784800064A1C6814605C685460986001B962B6A6
:107858005DF8044B70477047D030002000E100E02D
:107868004368F0B41BB1384AD468A34246D2374FB4
:107878007A68002302F580540B804FF0010C4FF614
:10788800FF76083294420ED8BCF1020FA1F800C06E
:1078980007F1140754D07A6802F5805408329442EC
:1078A8004FF0020CF0D913680133EDD0538803333D
:1078B80002EB83039C42E7D39588B5420AD015882A
:1078C80045B1956803689D4211D05388033302EB94
:1078D8008302D7E79C42D7D91A6801321A46D3D017
:1078E8005D88033503EB85039C42E5D2CCE7184B52
:1078F80042601B8903810120F0BC704712699342E2
:10790800B5D813F00305B2D1114A048912899442FB
:10791800ADD104689A689442A9D10C484268934250
:1079280003D902F58052934207D38269934207D95B
:1079380002F58052934203D201250D800120DBE736
:107948000020F0BC704700BFE82800201C31002050
:10795800003100202DE9F041344D354EB5F802E0F4
:107968006A684FEA8E0707EB0E0306EB830382B0C3
:10797800596801F58054002A55D05388033302EB27
:107988008302944213D8774406EB8706F368002BEA
:1079980040D0284B2848196802229A8005240023E1
:1079A80001222C7002B0BDE8F04102F023B8136840
:1079B8000133E8D05388033302EB8300A042E2D8B6
:1079C8004FF6FF78B2F804C0C44516D0B2F800C02C
:1079D800BCF1000F11D017486A6084880168164806
:1079E80001EB84019BB2002400949B0003242C70BB
:1079F80001F062FF02B0BDE8F0818442C3D9036898
:107A080001330246BFD04388033300EB830084422E
:107A1800D8D2B8E70848042401222C7002B0BDE887
:107A2800F04101F0E7BF01F10802AAE700310020A8
:107A38001C310020E4310020E82800202DE9F04F17
:107A4800A44E34688BB080464FF6FF7B002C00F0C4
:107A5800938023785A1E052A6BD8DFE802F05C353C
:107A6800351F1F03B8F1000F40F01881DFF888C2F6
:107A78009CF80C209CF80030002A00F08781013B1C
:107A88008CF80C80062B00F24183DFE813F0EB033F
:107A98001A0335020C023F032C031D03B8F1000F33
:107AA80040F0BC802279012A00F07F81C0F0268155
:107AB80005AF022ACDF81480C7E90288C7F81080FC
:107AC80040F071814046B0E0A78AA17DB8F1000F6F
:107AD80000F08C800229E28840F2F7804FEA87089C
:107AE8007D4D08EB070005EB8000D11CB0F808C0FD
:107AF80061440181474405EB8705C2F57F426989E6
:107B080005AFFD320A4400216A81B9600591C7E9D1
:107B18000311012089E0B8F1000F40F0CB802279F1
:107B2800032A00F22981DFE812F093019F01B301D3
:107B38007401002305AFC7E903330F22BB60059327
:107B48000692664C04F1100554F8043B384603B11C
:107B58009847AC42F8D1624962480024346001F089
:107B6800A7F90121604801F06BFA00283BD0A04634
:107B78003468002C7FF46DAF59495A4801F06AF90E
:107B88000446306065E70368013300F033834388B7
:107B9800033300EB83039942C0F02C83B0F804C090
:107BA800DC4500F02D83B0F800A0BAF1000F00F01A
:107BB8002783E388634540F01483B8F1000F40F051
:107BC800688300230093014638600423474A4848E5
:107BD80001F072FE002840F0588309EB890305EB99
:107BE800830501232B740BB0BDE8F08F4FEA87089B
:107BF800394D08EB070205EB8202B2F8089052688B
:107C080002EB8909062900F2F882DFE811F0280260
:107C1800D901010214028901B401CD01002205AF86
:107C2800C7E90322BA6005920120023B0690042BA3
:107C380087D8DFE803F027130A033B00E388ADF891
:107C4800203004238DF814307BE7D4F80620E3684D
:107C580003218DF81410CDE9073272E7A37D22893C
:107C6800A088E168ADF82020A3F10603B3FA83F3F6
:107C78005B0902228DF82430ADF8220007918DF8B7
:107C880014205EE72189A288E368079301208DF814
:107C98001400ADF82010ADF8222052E705AF0023FC
:107CA800BB600593C7E903330123069305238DF8C9
:107CB800143046E705AF0F4A002353600593C7E920
:107CC80002333B61012306933BE7034D4FEA8708E4
:107CD80010E700BF183100201C310020E8300020D8
:107CE80010310020D0310020E0310020341504008C
:107CF800E8280020F830002000310020022305AFDA
:107D080023713846E36805930DF11201CDF8188008
:107D1800CDF81C80FFF7A4FD002800F0BE8106996D
:107D2800B04A8B88E3800B882381AF48CDF8008068
:107D38000423BDF8124001F0BFFD002840F09782EF
:107D4800AA4B04EB840403EB8404012323744AE75D
:107D580001239A001A4405EB820300205968009019
:107D6800082305F82200A24A9F4801F0A5FD002833
:107D78003FF439AF346823789E4905AF00224A6042
:107D88000592C7E902223A610E204EE7072B00F25E
:107D98005482DFE813F0C301520252028B01FD0145
:107DA80099019901F7010F203FE7924B1B7803F0E7
:107DB800FF020292002B00F060818F4FB7F8049009
:107DC800B9F1010F1BD8894D09EB890205EB820235
:107DD80004321FFA89FE12F8043C002B00F0FB81E4
:107DE80009F101090EF101031FFA89FEBEF1010F25
:107DF8009BB202F11402DDF80880ECD9BB8008229E
:107E080000217D4805AF18F012FA00203468786028
:107E1800DBE17A4F764A39687348744D4FF00008B1
:107E280084F804800823CDF8008001F045FD744BE8
:107E38003C685B88B98803EB830305EB830205F88C
:107E4800238053683B60022354601181BB808EE716
:107E58006A4B6C4A19686448012323710023009314
:107E6800082301F029FD82E7604D2B78022B00F0F2
:107E78000A822B7D022B3FF46BAF5E4A05AF0023CD
:107E88000121117005935360C7E902333B611AE77A
:107E98005A4A55481168002323710224948001220C
:107EA80001F0A8FD63E7BCF80230504D03EB8303F3
:107EB80005EB8305EB68002B00F0B2814F4B4A4875
:107EC800196802229A8005228CF8002000230122DA
:107ED80001F090FD00283FF486AE05AF346800221B
:107EE80041F61D5123787A600592C7E902223A616A
:107EF800884208BF104698E6DCF804203F485388BB
:107F080084880168384801EB840103330024009415
:107F18009BB203249B008CF8004001F0CDFCD9E70C
:107F2800394BA26939491A604FF0000A1846C3F85C
:107F380004A0FFF795FC002800F09C810223A3759C
:107F480004234946CDF800A0E218274801F0B4FC04
:107F580000283FF448AEA27DE388022A4FF00E00C5
:107F680025D8474405EB8705C3F57F436A89FD3368
:107F780013446B81B1E7254B234AB3F8009051684D
:107F88001948184A00234FF0060C84F816C00093CD
:107F9800042301F091FC0028DDD109EB890905EBE8
:107FA800890501232B741EE6E38841F61D5008EB72
:107FB800070105EB8101DA1C0C8922440A81D0E70C
:107FC800032B0CBF052306230022A37509F1040126
:107FD8000092042304F10802034801F06DFC002814
:107FE800B9D100E634150400E82800201C3100202F
:107FF80038150400F8300020F4310020E431002066
:108008000031002040150400DC300020F031002051
:108018002369A148002B14BF032301230022A37561
:1080280009F108010092042304F10C0201F044FC58
:10803800002890D1D7E5E388226997484FF0010CD2
:1080480084F816C04FF0000C09F10C019B00CDF824
:1080580000C001F031FC00283FF4C5AD7BE70223E6
:108068000022A375042300924946E2188A4801F0C9
:1080780023FC00283FF4B7AD6DE708224146874846
:1080880018F0D5F83468CDF8148005AFC7E9018831
:10809800C7E9038823780220C7E50A200023C7E937
:1080A8000033C7E902333B612378BEE57C4ADCF83C
:1080B80004109388498803330B44022193808CF879
:1080C8000010FFF747FC05E7754B764A19687248B8
:1080D80000230093CCF8043007238CF800300823E1
:1080E80001F0EAFBF6E6BCF802206F4D930013445A
:1080F80005EB83050620002369686C4A00938CF819
:1081080000000823644801F0D7FBE3E605AF00232D
:10811800BB600593C7E903330F23C6E5624DBCF87E
:1081280008102A7D2B78B2FA82F252090131B3FA8B
:1081380083F35B098CF80B20ACF8081000220121AE
:108148008CF80A30ACF802208CF80C208CF800105F
:1081580033B1554DEB6800228CF80A20002B68D00B
:108168009CF80B303BB3504D2B6A00228CF80B2047
:108178000BBB95F82430F3B10123ACF80230FFF7BC
:10818800E9FBA7E601238CF800309CF80A30DFE70A
:10819800BCF80220444D42489300991805EB810130
:1081A80004684F68B0F804E04C6002240760A1F846
:1081B80008E084809BE705AF0020346878608CF87D
:1081C8000000ACF80200CCF804000590C7E90200F2
:1081D8003861237829E51368386803F58051083336
:1081E8000393002841D04388033300EB8300814286
:1081F8003FF6C9AC00233B60F2E5E3880F20D6E6E2
:108208009942F7D9186801301846F3D0B3F802C07C
:108218000CF1030C03EB8C039942BFF4BFACE9E704
:1082280004228CF8002069681B48012201F0E2FB57
:1082380050E62A7C002A93D09FE7013B062B3FF6A5
:1082480065AF01A252F823F06D820200CB800200D4
:10825800017F0200AF7E020015810200EF8002005C
:10826800D18002009CF80A3072E70398BFE73468AF
:108278000E2013E705AF0590C7E90100C7E9030021
:1082880023780A20D1E4002363E534680E2005AF83
:1082980004E7A7F804E094E4E8280020F43100207B
:1082A800E4310020401504001C310020381504007A
:1082B8004068FFF7C3BB00BF38B5084B1A68042AEB
:1082C8000AD01D68064C02460121184644F82520AC
:1082D80000F0AAFE002038BD0C2038BDEC3100208B
:1082E800E83000202DE9F04FB24C8FB022780023FF
:1082F800CDE90933CDE90B330D9372B1AE4C04F1DE
:10830800100554F8043B09A803B19847AC42F8D1CA
:10831800002528460FB0BDE8F08F201D02F0FF06AB
:1083280000F09AFE07460028F2D140F6F8731B6861
:108338005D1C00F007814FF0805211695269DFF827
:10834800A4829E49C8F810304046A3F54053002245
:10835800C8F80C3001F082FA05460028D9D11C2350
:108368008C229749974800F0FFFC974BD8F80C00EF
:10837800D3F800A0954BDFF870825B880493CDE9B1
:10838800025500F540534FF0030B01932A4605961A
:10839800002800F0A68003688D498B4240F0A18038
:1083A80043688C498B4200F0218101318B4240F0B7
:1083B8009880059B5BB102EB820608EB86030221DD
:1083C800013208F8261092B2C3F804A01981816816
:1083D8007D4B4FF0020C0131A3F804C000F1080EE8
:1083E80000F580532BD04189CE1C0EEB8606B34294
:1083F800C0F0C1804FF6FF790292BEF804A0CA45CA
:108408000DD0BEF800A0BAF1000F08D0724ADEF80D
:1084180008E0D2F800A0D64501D9C2F800E08C44A3
:108428000CF1030CB3421FFA8CFC00F296806649EB
:10843800029AA1F804C0BCF1020F40F03C8104216B
:108448000F430121824602911846019B83429FD126
:10845800029B002B40F02B81039B13B15B4B049ACA
:108468005A80BBF1010F40F28C80FFB2022F00F05E
:108478008880062F00F08F80002F00F0828008A9E6
:10848800504800F0ABFC1C220446002117F0CFFE38
:10849800002C00F00A810123013F23700A2F09D81C
:1084A800DFE807F019081908160816081C061C004A
:1084B8000223237108A9434800F0BCFC0121474866
:1084C80000F0A6FD00287FF423AFFFF7B7FA20E7F6
:1084D80001232371EEE700232371EBE703232371C4
:1084E800E8E700F58053014601E0994214D00E6890
:1084F800013601F10401F8D002EB820108EB810694
:108508000BF1FF3B01324FF0030C1FFA8BFB08F80D
:1085180021C0706092B297E7BAF1000F33D002EB36
:10852800820108EB810C0226CCF804000492501C4E
:1085380008F8216001220392ACF8086082B247F083
:10854800010781E7264B4FF080521B681169526979
:10855800581C08BF02FB01F3F1E631680131B64649
:108568003FF465AF718801F1030A06EB8A06B3424E
:10857800BFF443AF029A144E4FF48061B1800821D2
:108588005EE70B25C5E682460F48012602210296C2
:1085980081800596D3E7084D01220023227005F15A
:1085A8001006636055F8043B09A803B19847B54223
:1085B800F8D1ADE6F8300020E83000205417040068
:1085C80044310020D0310020E43100200031002067
:1085D800DEC0ADDEFE011EF114310020E0310020C6
:1085E80014100010E82800201C3100209600D0F854
:1085F8000890B31808EB830E00214FF0020CB9F174
:10860800FF3F08F82310CEF80400AEF808C000F5C4
:10861800805300F1080129D0408900F1030901EBDA
:1086280089094B4532D3CDF81CE04FF6FF79069205
:10863800B6468E884E4533D00E888EB31F4A8E6854
:108648001268964201D91D4A16604E880336844442
:1086580001EB86010CF1030C8B421FFA8CFC0AD843
:10866800069A142101FB0281A1F808C0013292B2D6
:1086780047F00207E8E608680130F1D04888C61CD0
:1086880001EB8606B342D4D2069A7646B11808EBB7
:1086980081014FF480604FF001060E740881E5E710
:1086A800079A4FF001061674CFE7082531E6044B08
:1086B800C3F800A0D0E60821C2E600BF14310020AC
:1086C800E431002008B301B370B582B00C460DF157
:1086D80006010546FFF7C4F8A0B1BDF806000C4B2B
:1086E8006E6800EB800003EB800001210C3000F085
:1086F8009BFC6B6826600C33012200206360AA7221
:1087080002B070BD0A2002B070BD0520704700BFDE
:108718001C310020E8B110B582B00DF10601044605
:10872800FFF79EF890B1BDF806300C4A03EB8303BF
:1087380002EB8303DA6872B1A27A62B1DA680021C7
:10874800013A0846DA60A17202B010BD0A2002B0F0
:1087580010BD05207047062002B010BD1C31002056
:10876800484B1B78002B32D0002934D00A884FF6AA
:10877800FF739A4229D04B883BB34B689B072CD197
:108788002DE9F043B1F8088008F103039BB240F2E9
:10879800FD32934283B01CD83B4A17783FB95689BB
:1087A800148934441C44A4B2B4F5806F17D3147DE3
:1087B8003CB9D68B948B34441C44A4B2B4F5806F76
:1087C8005CD3072003B0BDE8F08304207047022083
:1087D80070470920F6E70520704703207047BC461C
:1087E8004FEA8C09E14402EB890933440C460546FB
:1087F80001A92648A9F80A3000F0F0FA1C2206461A
:10880800002117F014FD56B36368336102224FF05C
:10881800000932700121B78286F816901C4800F0D2
:1088280003FC22886388B380F06001A9A6F80A9047
:108838003281A6F80680154800F0FCFA3DB1F268CE
:10884800144B85F80A901B892B81C5E90029012161
:10885800114800F0DDFB044660B10020B2E7B9F82A
:108868000A30C8F57F4808F1FD089844A9F80A803D
:108878000820A7E7FFF7E2F82046A3E70127BC4650
:10888800AEE700BFF83000201C310020D0310020B6
:108898001431002000310020E0310020002836D0BB
:1088A800494B1B78002B30D0002930D00A884FF66E
:1088B800FF739A422FD04B886BB34B689B0728D124
:1088C8002DE9F043B1F8089009F103039BB240F297
:1088D800FD32934283B020D83C4A15783DB9578978
:1088E80014893C441C44A4B2B4F5806F17D3147D9A
:1088F8003CB9D78B948B3C441C44A4B2B4F5806F2C
:108908005ED3072003B0BDE8F0830220704705203E
:10891800704703207047042070470920F2E7A846F3
:10892800AC464FEA8C05654402EB85053B44064698
:108938000C4627486B8101A900F050FA1C22074613
:10894800002117F074FC6FB363683B6100250322B4
:108958003A700121A7F81480BD751E4800F064FB29
:10896800B4F800C032686488BC8004230DEB0301AE
:10897800F860A7F808C0BA61BB75A7F806907D81B2
:10898800134800F057FA144BFA681B89B572C6E908
:10899800002533810121114800F03AFB044658B103
:1089A8002846AFE76B89C9F57F4909F1FD09994464
:1089B800A5F80A900820A5E7FFF740F82046A1E7A8
:1089C8004FF00108C446ACE7F83000201C31002005
:1089D800D03100201431002000310020E031002087
:1089E800184B1B7823B34FF6FF7398421ED070B50F
:1089F80082B001A90446144800F0F0F91C2205468B
:108A0800002117F014FCADB105230126EC8001A963
:108A18002B702E710C4800F00DFA31460B4800F00F
:108A2800F7FA044648B1002002B070BD0420704730
:108A380002207047082002B070BDFEF7FFFF2046F5
:108A480002B070BDF8300020D0310020E0310020A5
:108A5800194B1B78EBB110B582B001A9174800F08B
:108A6800BDF91C220446002117F0E1FB0CB30623D4
:108A7800237001A9114800F0DDF9114B1A7852B999
:108A88000121104800F0C4FA044668B1002002B081
:108A980010BD02207047012201210A481A7300F014
:108AA800B7FA04460028F1D1FEF7C8FF204602B005
:108AB80010BD082002B010BDF8300020D0310020D1
:108AC80000310020E03100202DE9F047334C2478B4
:108AD800002C5DD03AB333B39F88012F5BD8304C5C
:108AE80007EB870C013704EB8C0CBFB24FF6FF7E07
:108AF8004FF000089CF8004074B91C68DCF804507A
:108B080005F58056002C40D06588033504EB8504B4
:108B1800B4420BD3C3F80080022F9F800CF1140CD1
:108B280039D00227E6E70520BDE8F087256801353A
:108B3800F0D06588033504EB8505AE42EAD3B4F876
:108B48000490F14512D0B4F800A0BAF1000F0DD08E
:108B580081451C60D2D18A45D0D11249A3680989C0
:108B68001181C2E900340020BDE8F087AE42D1D9B6
:108B78002C6801342C46CDD0B5F8029009F10309D0
:108B880005EB8905AE42DAD2C4E705F10804BFE770
:108B98000220BDE8F0870A20C6E700BFF8300020B1
:108BA8001C31002000310020324B1B78002B5AD09A
:108BB80051B34AB32DE9F0419588012D58D82E4F6D
:108BC80005EB850307EB830701353B78ADB24FF61C
:108BD800FF7C4FF0000E43B1022D958007F114077A
:108BE80046D03B780225002BF6D113687C6804F543
:108BF8008056002B39D05C88033403EB8403B342DE
:108C080004D3C2F800E0E7E7052070471C68013488
:108C1800F7D05C88033403EB8404A642F1D3B3F89D
:108C28000480E04510D0B3F80080B8F1000F0BD0F5
:108C380080451360DAD19A68104800890881C1E933
:108C480000230020BDE8F081A642DAD92368013369
:108C58002346D6D0B4F8028008F1030804EB880450
:108C6800A642DCD2CDE70220704704F10803C6E72C
:108C78000A20E7E7F83000201C31002000310020EE
:108C8800324B1B78002B5AD051B34AB32DE9F0432D
:108C98009588012D58D82E4F05EB850307EB8307E0
:108CA80001353B78ADB24FF6FF7C4FF0000E43B173
:108CB800022D958007F1140746D03B780225002B3A
:108CC800F6D113687C6804F58056002B39D05C888F
:108CD800033403EB8403B34204D3C2F800E0E7E7AC
:108CE800052070471C680134F7D05C88033403EB17
:108CF8008404A642F1D3B3F80480E04510D0B3F859
:108D08000090B9F1000F0BD080451360DAD19A6852
:108D1800104800890881C1E900230020BDE8F083DC
:108D2800A642DAD9236801332346D6D0B4F80280A4
:108D380008F1030804EB8804A642DCD2CDE7022040
:108D4800704704F10803C6E70A20E7E7F830002077
:108D58001C3100200031002020B119B103680B60DC
:108D6800002070470520704799B110B4B2FBF3F4A6
:108D780003FB1424A4B244B9C0E9001484608281BE
:108D8800C38120465DF8044B704709205DF8044B09
:108D980070470E20704700BF82B050E8022FC1888C
:108DA800B2EB324F4FF0000317BF92B241EA0141D4
:108DB80042EA014104E04268B2EB324F08BF0123A6
:108DC80040E80212002AE8D18DF807309DF80730F4
:108DD800002B0CBF1120002002B0704730B482B0C5
:108DE80050E8013F9DB2C48925448489A54228BF23
:108DF8002D1B0489A54202BFBFF32F8F002207E075
:108E0800C5EA030540E80154002CE9D14FF00102FE
:108E18008DF803200193019B9DF803200B602AB174
:108E28000B880068184402B030BC704702F0FF039A
:108E38001846F8E70A884B889A4201D00020704704
:108E480050E8012FC2EA024240E80123002BF7D183
:108E58000120704730B482B050E8023F1FFAA3F5F2
:108E6800C488A54202BFBFF32F8F00220DE0C4893A
:108E780025448489A54228BF2D1BC3EA054540E83F
:108E88000254002CE8D14FF001028DF80320019321
:108E9800019B9DF803200B602AB14B880068184499
:108EA80002B030BC704702F0FF031846F8E700BF75
:108EB8000A884B889A4201D00020704750E8022F58
:108EC800C2EA224240E80223002BF7D10120704772
:108ED80001F01F024B09012100EB8300914000F0D3
:108EE8007FB800BF10B5012301F01F04490900EB4A
:108EF800810003FA04F100F067F8E04000F0010097
:108F080010BD00BF01F01F0201234909934000EB87
:108F18008100D94300F070B84B0901F01F0150F8E7
:108F28002300C84000F00100704700BF2DE9F84F4A
:108F380001F1FF394FEA591300F104090F460646BB
:108F480009EB8309044600254FF0010823686FEAFE
:108F5800030B9BFAABFBBBFA8BFBBBF1200F20D0BA
:108F6800AB445F450CD81CE02368DB4393FAA3F3BA
:108F7800B3FA83F3202B05EB030B12D05F4510D90E
:108F88000BF01F0A4FEA5B1008FA0AF106EB8000A3
:108F980000F01AF820FA0AF0C307E5D45846BDE8ED
:108FA800F88F04344C4505F12005CFD1BB4658460F
:108FB800BDE8F88F50E8002F0B4640E8003C9CF0D5
:108FC800000FF7D11046704750E8002F42EA01031E
:108FD80040E8003C9CF0000FF6D11046704700BFF7
:108FE80050E8003F43EA010240E8002C9CF0000FE3
:108FF800F6D11046704700BF50E8003F03EA01026F
:1090080040E8002C9CF0000FF6D11046704700BFD6
:1090180050E8002F02EB010340E8003C9CF0000FF1
:10902800F6D11046704700BF50E8003F03EB01023D
:1090380040E8002C9CF0000FF6D11046704700BFA6
:1090480050E8003FA3EB010240E8002C9CF0000F21
:10905800F6D11046704700BF012350E800CF4CEA14
:10906800030240E8002191F0000FF6D160467047F6
:10907800012350E8002F42EA030C40E800C191F0B8
:10908800000FF6D160467047002350E800CF0CEA85
:10909800030240E8002191F0000FF6D160467047C6
:1090A800B8B130B4D0E90124A41A0168E4B2631E4F
:1090B800DBB20A600CB908E00A68551C5C1E0D603A
:1090C8001370E3B2FF2B0168F6D10020087130BCA1
:1090D80070470E20704700BF70B582B002AB002405
:1090E80003F8014D05461846FEF77CFBD5E9002339
:1090F800116899420ED9AB68481E106011F8014CEE
:109108001179EE682D8A1B1ADBB2994205FB0464BB
:1091180038BF13719DF80700FEF78AFB204602B09E
:1091280070BD00BF30B583B002AB002203F8012D3B
:10913800054618460C46FEF755FB2A68298A136827
:10914800581C1060EA68A41AB4FBF1F41C709DF86E
:109158000700FEF76DFB03B030BD00BF826842B167
:1091680010B5436901680446006998470023A36065
:1091780010BD70470EB400B582B0039929B102AA98
:1091880004AB42F8043D00F08BF802B05DF804EB44
:1091980003B070472DE9F84F8846904517460546B5
:1091A8001E46DDE90AB175D343464FF00109B3FB0A
:1091B800F7F39F4209F10109F9D9B14538BFB14622
:1091C80011F0010AAA6802D1BBF1000F43D10124B2
:1091D80002E0013E07FB04F4012EFAD8B8FBF4F1D3
:1091E8008F42F7D92D4E05E0B4FBF7F4A4B1B8FBD4
:1091F800F4F1AA68705C531CAB602B689854D5E9ED
:1092080001329A4204FB1188EED32846FFF7A6FFE5
:10921800B4FBF7F4002CEAD1BAF1000F15D0BBF17A
:10922800000F12D0CB4510D92024AB682A68591CEE
:10923800A960D454D5E901329A420BF1FF3B06D21A
:10924800BBF1000F01D0CB45EFD1BDE8F88F284620
:10925800FFF784FFF4E78B0717D42024CB45B6D952
:109268002B68511CA9609C54D5E901329A420BF134
:10927800FF3B05D2BBF1000FA9D0CB45F0D1A6E743
:109288002846FFF76BFFAA68F4E7002E0CBF3024CE
:109298002024E3E74FF001098FE700BF48150400D9
:1092A800002900F0F4812DE9F04F054685B092467B
:1092B8000C460B78DFF8A0B501E0237893B10134B0
:1092C80083B1252B15D0AA682968501CA8608B5437
:1092D800D5E901329A42F0D32846FFF73FFF2378B9
:1092E800002BECD12B7B002B40F0148105B0BDE89E
:1092F800F08F2146002711F8012B2D2A00F0E1807C
:10930800302A00F0E2802B2A00F0D2802A2A00F0CE
:10931800E080A2F13006F3B2092B03D9B8E1A3F13A
:1093280030060146084606EB860310F8012BA2F129
:109338003004092C02EB4303F1D92E2A00F0D58022
:109348000023013101E011F8012B02F0FB0068282D
:109358000C46F8D0253A532AAFD801A151F822F08B
:1093680029950200C3920200C3920200C392020030
:10937800C3920200C3920200C3920200C392020089
:10938800C3920200C3920200C3920200C392020079
:10939800C3920200C3920200C3920200C392020069
:1093A800C3920200C3920200C3920200C392020059
:1093B800C3920200C3920200C3920200C392020049
:1093C800C3920200C3920200C3920200C392020039
:1093D800C3920200C3920200C3920200C392020029
:1093E800C3920200C3920200C3920200C392020019
:1093F800C3920200C3920200C3920200C392020009
:10940800C3920200C3920200C3920200C3920200F8
:10941800C3920200C3920200C3920200C3920200E8
:10942800C3920200C3920200C39202004395020055
:10943800C3920200C3920200C3920200C3920200C8
:10944800C3920200C3920200C3920200C3920200B8
:10945800C3920200C39202005D9502007F9502004C
:10946800C3920200C3920200C3920200C392020098
:109478007F950200C3920200C3920200C3920200C9
:10948800C3920200C3920200C3920200CF95020069
:10949800C3920200C392020043960200C3920200E4
:1094A8007D960200C3920200C39202004395020017
:1094B80047F004070C46214611F8012B2D2A7FF4AA
:1094C8001FAF47F001070C46F5E747F002070C46C7
:1094D800F1E7DAF800301A1DCAF8002062781E6831
:1094E8002E2A04F102007FF42BAF4A78A2F1300350
:1094F800092B00F25081002303EB830302EB4303A3
:1095080010F8012FA2F130010929A3F13003F3D992
:10951800014616E7284605B0BDE8F04FFFF71EBE26
:10952800AB682A68591CA9604FF02501D154D5E9C8
:1095380001329A42FFF4C1AECEE6DAF80020116893
:1095480001970432CAF80020284600961022FFF737
:1095580021FEB2E6DAF80030AA68187829680433E0
:10956800CAF80030531CAB608854D5E901329A42DE
:10957800FFF4A3AEB0E6DAF80010D1F8008088EA6C
:10958800E872A2EBE8720431092ACAF800104FF019
:10959800010107DDAF48A0FB0202D208092A01F148
:1095A8000101F7DC994238BF1946894607F00202E3
:1095B800002E71D12AB1002B00F04781FA0700F183
:1095C8008D8000268AE0DAF80030AA681F682968CA
:1095D8000433CAF80030501C3023A8608B54D5E9F6
:1095E8000123934280F028812A68581C7821A860BA
:1095F800D154D5E90123934280F019810F2F03D963
:109608003A4612090F2AFCD84FF0805603E0360973
:109618003FF453AEAB682968B7FBF6F2581CA86054
:109628001BF80200C854D5E90131994206FB1277AC
:10963800EDD32846FFF792FDE9E7DAF800301A1D66
:10964800CAF80020D3F80080FB077ED54746A7EB71
:10965800080917F8013B002B5DD0AA682968501C3F
:10966800A8608B54D5E901329A42F0D32846FFF717
:1096780075FDECE7DAF80020116801970432CAF8A2
:109688000020284600960A22FFF784FD15E6704759
:1096980008460026214650E6B8F1000F01DB78079E
:1096A80000D5013E02B1CBB1F90717D4002E88D0FE
:1096B800B14513D220220393A9682B68481CA860DF
:1096C8005A54D5E90131994206F1FF365DD2002E90
:1096D80000F0BD80B145EFD1039B4E46B8F1000FB5
:1096E800C0F292807A070AD5A9684A1CAA602A683B
:1096F8002B205054D5E90121914280F0928007F047
:109708000302022A5FD0CDE9006741460A222846B3
:10971800FFF740FDD1E54E457FF6CFAD202705E0A8
:109728004E453FF4CAAD002E3FF4C7ADAB682A687A
:10973800591CA960D754D5E901329A4206F1FF367F
:10974800EED32846FFF70AFDEAE7B8F1000F24D068
:10975800404616F0C1FD0746BE4220D9FEB14FF083
:10976800200902E0BE421AD0CEB1AB682A68591C63
:10977800A96002F80390D5E901329A4206F1FF3652
:10978800F0D32846FFF7EAFCECE728460292FFF7F9
:10979800E5FC029A9BE70146D2E54746DCE708F17B
:1097A800FF3818F8013F002B3FF487ADAA682968F5
:1097B800501CA8608B54D5E901329A42F1D328464F
:1097C800FFF7CCFCEDE7002B9DD1002E3BD0B14537
:1097D80099D2029323464C469946AA682B68501C96
:1097E8004FF03001A8609954D5E901329A4206F148
:1097F800FF3605D22EB3B442EFD1029B4C4682E726
:109808002846FFF7ABFCF5E7A9684A1CAA602A6856
:109818002D205054D5E901219142C8F10008FFF4E8
:109828006EAF28460293FFF799FC029B67E728462C
:10983800FFF794FCAB68E1E62846FFF78FFCAB68BE
:10984800D2E6029B4C4600265DE71E4646E7039B90
:10985800B7E600BFCDCCCCCC4815040010B582B01B
:1098680038B1B9B10B680160114602B0BDE81040CB
:1098780018470B480B4C0C4B0C4A0D49001BC008F1
:109888000E24000440F001000094FDF7D3F90E20E7
:1098980002B010BD0248034C034B064AEDE700BF77
:1098A80078120400F8110400581504000C1604007E
:1098B80014160400401604002DE9F04182B0002877
:1098C80054D0002A64D0D0F800C0BCF1000F69D091
:1098D8001C46002B33D04768D7F80480B3FBF8F751
:1098E80008FB1737002F3CD18F0723D112F0030F45
:1098F80053D1C768B94211D23248334C334B344A3A
:109908003449001BC0081024000440F001000094F2
:10991800FDF790F9204602B0BDE8F0814E1E0569BA
:109928003444AC42E8D8DCF80C40A44602B0BDE8A8
:10993800F04160472348244C244B274AE0E721485C
:10994800214C224B254A2349001BC0080924000446
:1099580040F001000094FDF76DF9204602B0BDE823
:10996800F0811848184C194B1D4AECE71548164C5D
:10997800164B1C4A1749001BC0080E24000440F06F
:1099880001000094FDF756F9204602B0BDE8F081C9
:109998000C480D4C0D4B144AECE70A480A4C0B4B8B
:1099A800124AADE7084C0748084B114A0949001B01
:1099B800C0080824000440F001000094FDF73AF9BB
:1099C8002046A8E778120400F81104006C1504007A
:1099D8001017040014160400D416040050160400CE
:1099E800A81604000C160400A0160400EC160400C7
:1099F80094160400F0B583B0002843D0D0F800C016
:109A0800BCF1000F4ED03AB34768D7F800E00EF12A
:109A1800FF370F4231D1C768B94210D229482A4CC2
:109A28002A4B2B4A2B49001BC0081024000440F085
:109A380001000094FDF7FEF8204603B0F0BD4D1E6E
:109A480004690EFB0255A542E8D8DCF81040A4468C
:109A580003B0BDE8F04060471B4C1A481B4B1E4A38
:109A68001C49001BC0080924000440F001000094B0
:109A7800FDF7E0F8204603B0F0BD1248124C134B36
:109A8800164ACFE7104C0F48104B154A1149001BD6
:109A9800C0080E24000440F001000094FDF7CAF845
:109AA8002046CAE7084C0748084B0E4A0949001BDC
:109AB800C0080824000440F001000094FDF7BAF83B
:109AC8002046BAE778120400F81104008015040053
:109AD800BC15040014160400501604009415040064
:109AE8000C1604009416040029DF704728DF70471D
:109AF8000846704700207047024B187A003018BF9C
:109B08000120704798320020034B187A0122B0FADE
:109B180080F05A74400970479832002008B5104602
:109B28001A4616F05BFB002008BD00BF08B51422DA
:109B38000021044816F07BFB0348FFF72DF90020AD
:109B480008BD00BF983200208832002010B5094CAB
:109B5800094B43602046FFF77FFA40B909F0BEFA87
:109B68001C2320748C2205490548FFF7FDF80020C6
:109B780010BD00BF9832002048170400FC310020B7
:109B880088320020F0B55E4C237A87B0002B3AD09B
:109B98005C4B1B681A7902212172002A3ED0012AE7
:109BA8000CD1D3E903021044FFF7A0FF002849D0E5
:109BB800112803D10123237207B0F0BD1A689568F4
:109BC800C5B16A4618799E6800210091C2E9021160
:109BD800116103210191059600284BD0012807D176
:109BE800D9685B6904930B03022102938DF8001076
:109BF8001046A84700234449444823726360FFF78E
:109C080057F907B0F0BD40494048FFF723F93D4AEE
:109C1800034610600028BDD16060F2E7D3E905254E
:109C2800521BB2F5805F28BF4FF48052D3E903106E
:109C38009208012A38BF012229442844FFF754FF1B
:109C48000028B5D1227C002ADBD1217A0029D8D07E
:109C580002290AD11A79E060DAB1012A05D1D3E9DB
:109C68000452013595421D6137D0637C73B109F008
:109C780025FAC6E7012118698DF80010D9685B69D3
:109C88000493CDE902011046A847B3E7FFF77AFF2E
:109C9800B7E7D3E905128D1AB5F5805F94BF52195D
:109CA80002F5805291429A61DFD11A682072966853
:109CB80076B16A469F6800905060D3E90330CDE9D9
:109CC8000203012505978DF8005004911046B0470E
:109CD8000D490E48FFF7ECF8C7E71A682072966836
:109CE800002EF5D0D3E902C76A463F0300905060C2
:109CF800D0600297CDF814C08DF800100495E5E700
:109D080098320020B0320020AC3200208832002087
:109D18002DE9F04782B082468946174801A9904646
:109D28001F46FFF75BF810B3044600211C220D46BE
:109D3800124E16F07CFA0A9BC4F800A0A360C4E98E
:109D48000389676101A925710B48FFF773F8301D76
:109D5800FFF782F938B9747C34B9FFF713FF20464E
:109D680002B0BDE8F087284602B0BDE8F0870420BD
:109D780002B0BDE8F08700BF88320020983200208A
:109D88002DE9F04383B081460D46164801A91746D0
:109D98009846FFF723F808B304461C22002116F062
:109DA80046FA114EC4F8009001232D0BC4E9028530
:109DB800676101A923710B48FFF73CF8301DFFF7D5
:109DC8004BF938B9747C34B9FFF7DCFE204603B090
:109DD800BDE8F083002003B0BDE8F083042003B0A1
:109DE800BDE8F083883200209832002000F0FD039F
:109DF800012B00D07047F0B5614CA0F10100B0FA1A
:109E080080F0237A4009002287B020746274002B06
:109E18003AD05C4B1B681A7902212172002A3ED085
:109E2800012A0CD1D3E903021044FFF75FFE002892
:109E380049D0112803D10123237207B0F0BD1A6855
:109E48009568C5B16A4618799E6800210091C2E9F3
:109E58000211116103210191059600284BD00128B8
:109E680007D1D9685B6904930B03022102938DF82B
:109E780000101046A84700234349444823726360F2
:109E8800FFF716F807B0F0BD3F494048FEF7E2FF7C
:109E98003C4A034610600028BDD16060F2E7D3E970
:109EA8000525521BB2F5805F28BF4FF48052D3E9D5
:109EB80003109208012A38BF012229442844FFF7D9
:109EC80013FE0028B5D1227C002ADBD1217A002993
:109ED800D8D002290AD11A79E060CAB1012A05D17D
:109EE800D3E90452013595421D6135D0637C63B1D5
:109EF80009F0E4F8C6E7012118698DF80010D9685F
:109F08005B690493CDE90201B3E7FFF73BFEB9E7CC
:109F1800D3E905128D1AB5F5805F94BF521902F581
:109F2800805291429A61E1D11A682072966876B19E
:109F38006A469F6800905060D3E90330CDE9020378
:109F4800012505978DF8005004911046B0470E4939
:109F58000E48FEF7ADFFC9E71A6820729668002E12
:109F6800F5D0D3E902C76A463F0300905060D0603D
:109F78000297CDF814C08DF800100495E5E700BFEE
:109F880098320020B0320020AC3200208832002005
:109F9800831E012B00D97047F0B58E4C237A87B009
:109FA800002B31D0022B2BD103286BD1E36801336E
:109FB800082B79D9884B00221B68E26022720D2099
:109FC8001A689568C5B11E799F686A460021009194
:109FD800C2E90211116101900597002E00F0B980C5
:109FE800012E07D1D9685B6904930B030221029300
:109FF8008DF800101046A84778497948FEF758FFB1
:10A00800637C1BB109F05AF807B0F0BD237A002B26
:10A018005BD0714B1B681A7902212172002A5FD02C
:10A02800012A0BD1D3E903021044FFF75FFD002892
:10A0380069D0112802D101232372E5E71A689568CF
:10A04800C5B16A4618799E6800210091C2E90211DB
:10A058001161032101910596002870D0012807D1CC
:10A06800D9685B6904930B03022102938DF80010F1
:10A078001046A84700235949594823726360FEF7E0
:10A0880017FFC1E7544B1B681A790021E1606AB1D8
:10A09800012AB5D1D3E9042101328A421A6111D0CB
:10A0A800637C002BAED1B4E7E360F9E7D3E905128E
:10A0B800881AB0F5805F94BF121802F58052914259
:10A0C8009A61EDD1002020727AE744494448FEF7AE
:10A0D800C1FE414A0346106000289CD1606093E7A6
:10A0E800D3E90525521BB2F5805FD3E9031028BFD9
:10A0F8004FF480529208012A38BF0122294428448B
:10A10800FFF7F2FC93E7227C002A7FF47DAF217AE7
:10A1180000293FF479AF02290AD11A79E06012B315
:10A12800012A05D1D3E90452013595421D613ED07B
:10A13800637C002B7FF466AFFFF724FD64E7012101
:10A1480018698DF80010D9685B690493CDE902019C
:10A158008EE7012118698DF80010D9685B690493AE
:10A16800CDE9020146E7D3E905128D1AB5F5805FFE
:10A1780094BF521902F5805291429A61D8D11A6857
:10A188002072966876B16A469F6800905060D3E95D
:10A198000330CDE90203012505978DF8005004919D
:10A1A8001046B0470D490E48FEF782FEC0E71A6810
:10A1B80020729668002EF5D0D3E902C76A463F039D
:10A1C80000905060D0600297CDF814C08DF8001050
:10A1D8000495E5E798320020B0320020AC32002028
:10A1E80088320020FEF75CBF2DE9F041058ACE1CBD
:10A1F800043D2E440746B6FBF5F6FEF76DFF78B32F
:10A20800F6B24FF48073013E0446C5800760838030
:10A2180027D08046002509E06379AE4203F10103A7
:10A228006371C8F80000076080461AD03846FEF708
:10A2380053FF01350028EFD16679721E14D02346EA
:10A24800013082421B68FBD11F684EB1002523688C
:10A258002146013538461C46FEF764FFAE42F6D16A
:10A2680000242046BDE8F0812768EFE7043001218B
:10A27800FEF7DABEF8B5012104460430FEF7E0FE29
:10A28800C0B200B1F8BD6679721E12D02346013003
:10A2980082421B68FBD11F68002EF3D0002523687B
:10A2A8002146013538461C46FEF73CFFAE42F6D142
:10A2B800F8BD2768F2E700BF2DE9F843C78846795B
:10A2C80007FB06F6043E02EB030C0446664503F161
:10A2D800040015468846B0FBF7F238BFF51A07FBAD
:10A2E800120012B1013A2468FCD13E1AAE4228BFCE
:10A2F8002E469DB14FF000090430AD1B2044324674
:10A3080008EB090115F06AFFAF42B14424683E46E4
:10A318004FF0000028BF2E46002DEDD1BDE8F88390
:10A328002DE9F843C7884679154607FB06F6043E2B
:10A3380005EB030C1A1D664504468846B2FBF7F088
:10A3480038BFF51A07FB102110B101382468FCD179
:10A358007E1AAE4228BF2E469DB14FF00009043147
:10A368002144AD1B324608EB090015F037FFAF4218
:10A37800B14424683E464FF0000128BF2E46002D08
:10A38800EDD1BDE8F88300BF33DF704741DF704788
:10A3980000B583B002A8002300F8013DFDF722FABA
:10A3A800F1EE103A23F09F03E1EE103ABFF35F8F0E
:10A3B8000A4B4022C3F884219DF80700FDF738FABC
:10A3C80008F08CFE28B920BF40BF20BF03B05DF85D
:10A3D80004FBFFF7DBFF03B05DF804FB00E100E0DE
:10A3E800F8B5264D064601212846FEF7E3FDBFF3E2
:10A3F8005F8FD0B9042E2FD0214B1A7892B9214CF7
:10A40800012226701A70204E73687BB1374604E02B
:10A41800384600F053F8736843B11B6820789847B2
:10A428000028F5D1BFF35F8F2860F8BDFCF7F6FD73
:10A43800FCF7BAFD0028FBD12378023B012B0DD98C
:10A4480008F04CFEB8B94FF080430122C3F800254C
:10A45800BFF34F8F20BFFDE70A4CD4E7BFF34F8F00
:10A468000A490B4BCA6802F4E0621343CB60BFF39E
:10A478004F8F00BFFDE7FFF787FFE4E7C0320020FA
:10A48800BD320020BC320020B432002000ED00E0D4
:10A498000400FA05836800225A609A60C3E904221E
:10A4A800DA601A60704700BFD1E900329342C0E910
:10A4B800001304BF00234360704700BF436843B1E3
:10A4C8000268D2E901210B449342436004BF002390
:10A4D8004360704730B4184DA5F59472AB1ADB1081
:10A4E80003EBD3735B1002EBC30152F8333098428D
:10A4F80028BF0C4605D311E052F8333098420CD2ED
:10A5080021468B1ADB1003EBD3735B108A4202EBF4
:10A51800C304F1D3094830BC70470D46984204D9AA
:10A5280004F10802AA42D9D3F4E76068034B002873
:10A5380008BF1846EFE700BFBC18040080170400E6
:10A5480010B570B101280BD10D4C2369A0703BB137
:10A55800D3E900230120226198472369002BF7D112
:10A5680010BD074CA36801226270002BF8D0D3E914
:10A5780000230020A2609847A368002BF7D1EFE7DB
:10A58800C432002070B910B5074CA368012262706C
:10A598003BB1D3E900230020A2609847A368002BB1
:10A5A800F7D110BD704700BFC432002030B5012874
:10A5B80083B01CD015D3032811D100F02BF902A8C1
:10A5C80000231F4C00F8013DFDF70CF9E368013B3F
:10A5D800E360E56865B39DF80700FDF729F903B066
:10A5E80030BD184B0122C3F8802003B030BD02A84B
:10A5F8000023134C00F8013DFDF7F4F8237853B11C
:10A60800E3689DF8070001330122E360A270FDF7BB
:10A618000FF903B030BD0C486360A3602361E360A9
:10A6280000F0EAF808F05AFD30B101232370E7E79B
:10A6380000F032F9A570CEE700F0ECF8F5E700BFBE
:10A64800C432002000E100E049A5020038B50C4CF6
:10A65800237873B90B486360A3602361E36000F05B
:10A66800CBF8054608F03AFD30B10123237028469F
:10A6780038BD8525284638BD00F0CCF8F5E700BF81
:10A68800C432002049A5020030B5194CA37883B024
:10A69800054693B110B143680120984702A80023EA
:10A6A80000F8013DFDF79EF8E3689DF807000133C7
:10A6B800E360FDF7BDF803B030BD02A803F0FF0268
:10A6C80000F8012DFDF78EF865B1226942B1954277
:10A6D80008D0134601E09D4204D01B68002BFAD134
:10A6E8002A602561E368002BDED100F0A5F8DBE7DE
:10A6F800C432002008B508F0F1FC28B94FF08043B7
:10A70800D3F81804C0F3004008BD00BF30B585B0C9
:10A71800047845688DF80040D0E90240064A074BA6
:10A72800039053F8213001958DF8084052F8211014
:10A738006846984705B030BDD8320020DC3200208A
:10A7480030B585B0047845688DF80040D0E90240FE
:10A75800064A074B039053F8213001958DF80840BD
:10A7680052F821106846984705B030BDD83200200D
:10A77800DC3200202DE9F0411A4B067891F81D8053
:10A7880003F806800D46964684460FCD88B06C4681
:10A798000FC495E80F00144D45F826E0134D84E8E2
:10A7A8000F0045F826000496B8F1000F0CD0BEF152
:10A7B800000F0F4A69460CF1040008BF002200F0A0
:10A7C8004FFF08B0BDE8F081BEF1000F094A6946A5
:10A7D8000CF10C0008BF002200F054FC08B0BDE8E2
:10A7E800F08100BFE0320020DC320020D8320020A7
:10A7F80015A7020049A70200054A13792BB90121C0
:10A80800106053711846117170478520704700BF5A
:10A81800E4320020074B1A68D20704D4C021012271
:10A8280083F800131A604FF080430122C3F81825FB
:10A83800704700BF00E100E010B41349134B144AFD
:10A848000020086083B0096801914FF08041022020
:10A85800019CC1F80403D86840F08071D96014687D
:10A8680044F001031360516853685B1AB3F50A5F3B
:10A87800FAD30649074B14600122C8601A6003B076
:10A888005DF8044B704700BF04010040F0ED00E0A4
:10A89800001000E008000040044B01221A604FF04D
:10A8A8008042D2F81834DB03FBD470470C00004018
:10A8B80010B5154B1A6882B07AB10021134A196095
:10A8C8001B68507900934FF080410123009CC1F828
:10A8D800083310B91168537188470D4B1A6882B153
:10A8E80000221A601B680193084B01981B684FF0FF
:10A8F800804202210120C2F8081302B0BDE81040CE
:10A90800184702B010BD00BF00010040E43200202B
:10A91800040100402DE9F04186B00023A14A0193CB
:10A928001668012E00F054811E469F4B1A68012AB2
:10A9380000F05D819D4B1A68012A00F06A819C4BEA
:10A948001A68012A00F077819A4B1A68012A00F0E8
:10A958008481994B1A68012A00F09181974B1A68F3
:10A96800012A00F09E81964B1A68012A0CD0954B5B
:10A978001B68012B00F0A58116F0FF0F15D1002EE2
:10A9880030DB06B0BDE8F0818F4AD2F80423170601
:10A99800EDD500221A601A6804926033049A1B6885
:10A9A800012B46F0800600F08C81884F0024012599
:10A9B800A30003F18043354203F5C0434FEA450540
:10A9C8000BD0D3F8100557F82420D3F81015C0F38E
:10A9D8000420C1F3014102B190470134082CE7D1AA
:10A9E800002ECEDA00224FF0FF33CDE90223774C58
:10A9F800012602AF94F950305D1C2CD0DBB223F055
:10AA0800C00006AA4FEAD00C02EB0C0E03F00702B6
:10AA18001EF80C1C06FA02F211421CD025189909DE
:10AA280095F9303054F82330002B00F09881032931
:10AA380000F098814FEA800C0CF1A04C1EF8145CD1
:10AA4800DCF800E71540CEF3014E40F05C81BEF122
:10AA5800030F00F0DE81002594F95130581C2DD0E9
:10AA6800DBB223F0C00006AA4FEAD00802EB080EBA
:10AA780003F007011EF80C2C06FA01FC12EA0C0F71
:10AA88001CD02218990992F9303054F82330002B41
:10AA980000F05B81032900F05B81820002F1A04293
:10AAA8001EF8148CD2F800E718EA0C0FCEF3014E0A
:10AAB80040F03681BEF1030F00F0A68194F95230C0
:10AAC800591C2DD0DBB223F0C00006AA4FEAD008EB
:10AAD80002EB080E03F007011EF80C2C06FA01FC25
:10AAE80012EA0C0F1CD02218990992F9303054F848
:10AAF8002330002B00F03C81032900F03C818200C8
:10AB080002F1A0421EF8148CD2F800E718EA0C0FE4
:10AB1800CEF3014E40F0E380BEF1030F00F06E81EA
:10AB280094F953305A1C2DD0DBB223F0C00006AA8A
:10AB38004FEAD00802EB080E03F007011EF80C2CB0
:10AB480006FA01FC12EA0C0F1CD02218990992F996
:10AB5800303054F82330002B00F0ED80032900F04A
:10AB6800ED80820002F1A0421EF8148CD2F800E7B2
:10AB780018EA0C0FCEF3014E40F0BC80BEF1030F73
:10AB880000F00081002D3FF4FCAE4FF0A043019A85
:10AB9800D3F8103593423FF4F4AE029A019303922E
:10ABA80028E700BF006100400461004008610040E0
:10ABB8000C610040106100401461004018610040C1
:10ABC8001C6100407C61004000600040EC320020C5
:10ABD8009A49D1F8041311F0010170D01360136879
:10ABE8000493049B964B1A68012A7FF4A3AE934AF8
:10ABF800D2F8042397077FF59DAE00221A601B68E0
:10AC08000493049B8F4B1A68012A46F002067FF4CE
:10AC180096AE8A4AD2F8042355077FF590AE0022F3
:10AC28001A601B680493049B874B1A68012A46F034
:10AC380004067FF489AE814AD2F8042314077FF50D
:10AC480083AE00221A601B680493049B7F4B1A682A
:10AC5800012A46F008067FF47CAE784AD2F804232D
:10AC6800D0067FF576AE00221A601B680493049B19
:10AC7800774B1A68012A46F010067FF46FAE6F4AC8
:10AC8800D2F8042391067FF569AE00221A601B688A
:10AC98000493049B6F4B1A68012A46F020067FF440
:10ACA80062AE664AD2F8042352067FF55CAE0022F3
:10ACB8001A601B680493049B46F0400653E60E4650
:10ACC80033E6654B00221A601B6805934FF0A043DA
:10ACD800059AD3F81035019346F000464CE6BEF1CC
:10ACE800020F7FF41DAF032963D0002B3FF418AF88
:10ACF800984715E7BEF1020F7FF444AF032969D0E6
:10AD0800002B54D13EE7BEF1020F7FF4A4AE032915
:10AD180000F091800025002B3FF49EAE98479BE6FB
:10AD2800BEF1020F7FF4CAAE032956D0002B3FF4C0
:10AD3800C5AE9847C2E603297FF424AF17F8082068
:10AD480042EA0C0207F808200BE703297FF4B6AEA5
:10AD580017F8082042EA0C0207F808209DE60329A4
:10AD68007FF479AE17F80C50154307F80C5061E6DC
:10AD780003297FF4D5AE17F8082042EA0C0207F839
:10AD88000820BCE60329BBD14FF4003ED2F800C727
:10AD98002CF4403CC2F800C7D2F800C701354CEA91
:10ADA8000E0CEDB2C2F800C7002B3FF4EEAE984788
:10ADB800E8E64FF4403ED2F800C72CF4403CC2F815
:10ADC80000C7D2F800C701354CEA0E0CEDB2C2F844
:10ADD80000C78AE74FF4403ED8E74FF4403ED2F828
:10ADE80000C72CF4403CC2F800C7D2F800C70135B0
:10ADF8004CEA0E0CEDB2C2F800C797E703297FF4BE
:10AE080074AF4FF4003ED6E703298FD14FF4003ECC
:10AE1800E5E703297FF47FAF4FF40035DCF800271E
:10AE280022F44032CCF80027DCF800272A43CCF87B
:10AE3800002701256FE74FF44035EFE70060004039
:10AE480004610040086100400C610040106100404E
:10AE580014610040186100407C610040014B1B6890
:10AE6800184700BF48330020104B984201D00020FB
:10AE7800704730B583B002A8002300F8013D0D46A5
:10AE8800FCF7B0FC0A4B1C7934B19DF80700FCF7BD
:10AE9800CFFC112003B030BD01229DF807001D60D2
:10AEA8001A71FCF7C5FC2046F4E700BF00200040FB
:10AEB80048330020034B984203D1034B00221A6009
:10AEC8001A717047002000404833002070B56B4A63
:10AED800D2F8043399058AB066D5D2F82431002B0C
:10AEE80062D00021664BC2F82411D2F8240193F8ED
:10AEF800291003904FF40170039CC2F8080309B9A4
:10AF0800012151605D49D868D1F880245C68022528
:10AF18008DF81850C1F88024996909920022CDE96A
:10AF28000701C3E90622196806A8A047534AD2F8C0
:10AF38001C31BBB1524B186A5969884269D34F48D2
:10AF48000022C0F81C21D0F81C010190019849B1D9
:10AF580098688DF8182008915A610790D3E9001273
:10AF680006A89047454AD2F84431DBB10021444B4A
:10AF7800C2F84411D2F8440193F8291000900098BF
:10AF880009B1012111609A6962B10022586AD96831
:10AF98009A610122CDE907108DF8182006A8D3E997
:10AFA800001290470AB070BD344AD2F804335B07E8
:10AFB800BCD5D2F80831002BB8D0314B996900299B
:10AFC8003CD00021C2F80811D2F808110491049964
:10AFD800D868596AD2F8182542545A6A99690132D0
:10AFE8005A625A6A8A42A1D1DA69D868D3E9001448
:10AFF800002A2CD05E6A9A611D6907900022012000
:10B008008DF818000896DD60DA615A6206A8A04734
:10B018008CE793F8280000F0FF0400288FD1C2F8CD
:10B028001C41D2F81C11029102999C68186A196A8D
:10B03800205C01311962C2F81C0593E7C2F80811B7
:10B04800D2F8080105900598D2F81825C9E793F8B1
:10B05800292012B9094A01255560084A4FF401759B
:10B06800C2F808535D6A079001220020986108958C
:10B078008DF8182006A8A04758E700BF0020004018
:10B08800503300202DE9F0475D4F04792C2303FB52
:10B09800047382B093F82A30002B40F084800E4667
:10B0A8000546584900689046FFF7DEFE002876D12D
:10B0B80031682B684A1C0DD04FF0A04E4FF0010CA0
:10B0C80001F5E0720CFA01FC4FF00309CEF808C54F
:10B0D8004EF82290D6F804E0BEF1FF3F07D04FF0BB
:10B0E800A04C0EF5E0724FF000094CF8229096F84B
:10B0F800149096F815C0B269C3F82425B9F1010F68
:10B1080049EA0C02C3F86C25C3F814E5C3F80C151A
:10B118004DD02C2303FB04F3F9183269FA50C1F817
:10B1280004802B68B8F1000F27D00022317FC3F8C4
:10B138001C21D3F81C510095009DC3F84421D3F875
:10B14800442101921A0B55B22F4EDDF804C0C3F802
:10B1580004634901002DC9B2D2B24ADB05F1604649
:10B1680006F5614686F8001302F01F026D090121F9
:10B17800264E01FA02F246F825202C2202FB04741E
:10B1880001250022042184F82A50C4E9062284F803
:10B1980029206261C3F8001502B0BDE8F0871120CC
:10B1A80002B0BDE8F087082002B0BDE8F087B168BA
:10B1B8004A1C07D04FF0A04C01F5E0724FF0000E8A
:10B1C8004CF822E0F268B2F1FF3F0DD04FF0A049F1
:10B1D8004FF0010E02F5E07C0EFA02FE4FF0030A72
:10B1E800C9F808E549F82CA0C3F80825C3F81015D4
:10B1F8008FE7074E02F00F0C66443176B4E700BFC4
:10B2080050330020D5AE02008000020000E100E0CB
:10B21800FCEC00E0F8B52D4D047900682C2303FB05
:10B22800045300225B68C0F8002573B1020B53B2C7
:10B238005B090121203302F01F02254E01FA02F2B8
:10B248002449C0F8081346F82320D0F80C75D0F824
:10B258001465D0F80825D0F810154FF0FF339F4239
:10B26800C0F81435C0F80C35C0F80835C0F81035EA
:10B2780007D007F5E0774FF0A0434FF0020C43F8F2
:10B2880027C0771C06D006F5E0764FF0A0430227CA
:10B2980043F826704E1C06D001F5E0714FF0A0432C
:10B2A800022643F82160531C06D002F5E0724FF0E5
:10B2B800A043022143F82210FFF7FCFD2C2303FBD7
:10B2C8000454002384F82A306360F8BD503300200A
:10B2D80000E100E084020200F0B4304E05792C232E
:10B2E80003FB056384B05C69002C50D100681C62C4
:10B2F80083F82840C0F81C41D0F81C710297012738
:10B3080099605A61029A8760C0F81C41D0F81C21E4
:10B318000192019A9F68D3F820C01A6A596817F8F1
:10B328000CC001321A62C0F81CC519B1204604B01D
:10B33800F0BC70471A6A5C69944203D818E093F825
:10B34800282042BBD0F81C21002AF8D0C0F81C11D4
:10B35800D0F81C210392039AD3F820C01A6A17F870
:10B368000CC001321A62C0F81CC51A6AA242E9D39D
:10B37800D0F81C31002BFBD00123C36000202C2304
:10B3880003FB056300225A6104B0F0BC704711202A
:10B3980004B0F0BC70470F20F1E700BF5033002025
:10B3A8000379044A2C2101FB03235869003018BF94
:10B3B8000120704750330020F0B4514D04792C23FC
:10B3C80003FB045386B05F6827B103684FF4017626
:10B3D800C3F808632C2303FB04539E696EB1DE692E
:10B3E8000EB3002F00F0868003684FF4017211201D
:10B3F800C3F8042306B0F0BC704793F829709A612B
:10B40800D9605E62DE610368002F64D02C2202FBE3
:10B418000452516881B14FF40172C3F8042300202B
:10B4280006B0F0BC7047DA612C2202FB04521961A5
:10B43800516803680029EED1C3F84411D3F84411C8
:10B4480003910399D3F82461D3F80871D3F8441110
:10B4580057B9002936D1002EF4D02C2303FB04540D
:10B468000023A3610320DBE7002EF6D161BB9669B8
:10B478009EB1C3F80811D3F8081104910499D6684D
:10B48800516AD3F818357354536A9169013353627A
:10B49800536A99420368D5D808E0C3F80861D3F81D
:10B4A800081105910599D3F81815526A2C2202FB48
:10B4B8000454002294F82900A261E8B10121104641
:10B4C8001960ADE7002EC8D12C2303FB04540023D8
:10B4D800A3610F20A4E7C3F82471D3F824210192B3
:10B4E800019AC3F80871D3F808210292012202993F
:10B4F8001A608BE7112093E701225A6090E700BF9A
:10B50800503300200E4A03792C2101FB032393F8C2
:10B51800291099B9026882B0C2F82411D2F824011E
:10B5280000900098C2F80811D2F80811019101980A
:10B538000121116083F8291002B07047704700BFDD
:10B5480050330020F0B5444BD3F8242189B0002AA9
:10B5580052D00021C3F82411D3F824210292029A70
:10B568003E4AD3F88004916102248DF81040C3F854
:10B5780080040790D3F83C05D3680690D161059301
:10B588001168536804A89847334BD3F84421BAB1DB
:10B598000021324AC3F84411D3F844419069019418
:10B5A800019C68B1D3F83C35D06806930123C2E901
:10B5B800061105908DF8103004A8D2E900139847B9
:10B5C800254BD3F82021AAB10021C3F82011D3F8C4
:10B5D8002001224A00900098506958B1D3F84C05D0
:10B5E800936806908DF810105161059304A8D2E96C
:10B5F8000013984709B0F0BDD3F810110029C3D043
:10B60800C3F81021D3F810111448039103998169E4
:10B61800D3F83C458C42B7D1C569C768D0E9001654
:10B628008DB1D3F800C285612CF02005C261C3F842
:10B63800005201220369C360CDE905748DF810201A
:10B6480004A8B047A0E701238561CDE905748DF80A
:10B65800103004A8B04797E7002000407C33002052
:10B668002DE9F04F0779644C4FEAC70808EB070348
:10B6780004EB830385B093F82030002B40F09080D2
:10B688000E4605465D4900689146FFF7EDFB002828
:10B6980040F0828031682A684B1C0DD04FF0A04ED4
:10B6A8004FF0010C01F5E0730CFA01FC4FF0030AAE
:10B6B800CEF808C54EF823A0D6F804E0BEF1FF3F47
:10B6C80007D04FF0A04C0EF5E0734FF0000A4CF88D
:10B6D80023A096F814A096F815C0B369C2F82435CB
:10B6E800BAF1010F4AEA0C03C2F86C35C2F80C151E
:10B6F800C2F814E558D008EB07029200A118336984
:10B70800A350C1F804902A68B9F1000F33D0002380
:10B71800317FC2F81031D2F810510095009DC2F85F
:10B728002031D2F820510195019DC2F82431D2F878
:10B7380024510295029DC2F84431D2F84431039352
:10B74800130B5DB22E4EDDF80CC0C2F8046349013C
:10B75800002DC9B2DBB249DB05F1604606F561464A
:10B7680086F8001303F01F036D090121254E01FA25
:10B7780003F346F8253008EB070304EB830401259F
:10B7880000230821C2F8001584F82050C4E90633C4
:10B79800636105B0BDE8F08F112005B0BDE8F08FFA
:10B7A800082005B0BDE8F08FB1684B1C07D04FF0FA
:10B7B800A04C01F5E0734FF0000E4CF823E0F3685D
:10B7C800B3F1FF3F0DD04FF0A04E4FF0010B03F542
:10B7D800E07C0BFA03FB4FF0030ACEF808B54EF8ED
:10B7E8002CA0C2F80835C2F8101584E7064E03F0FD
:10B7F8000F0C66443176B5E77C3300204DB5020066
:10B808001003020000E100E0FCEC00E0F8B5067966
:10B818002D4C0068F500AB1904EB830300225B682C
:10B82800C0F8002573B1020B53B25B090121203324
:10B8380002F01F02254F01FA02F22549C0F8081349
:10B8480047F82320D0F80CC5D0F81475D0F808258F
:10B85800D0F810154FF0FF339C45C0F80C35C0F8F0
:10B868001435C0F80835C0F8103507D00CF5E07C61
:10B878004FF0A0434FF0020E43F82CE07B1C07D09A
:10B8880007F5E0774FF0A0434FF0020C43F827C0CC
:10B898004F1C06D001F5E0714FF0A043022743F892
:10B8A8002170531C06D002F5E0724FF0A04302212C
:10B8B80043F82210354404EB8504FFF7FBFA002314
:10B8C80084F820306360F8BD7C33002000E100E09C
:10B8D8001003020001F06043B3F1005F3CD1F0B403
:10B8E8000679214F4FEAC60C0CEB060507EB8505D8
:10B8F80082B06C69002C31D103686A61C3F82041B9
:10B90800D3F820210192019AC3F85841D3F858215D
:10B918000092009A6869A9600122C3F84415C3F827
:10B9280048059A606A6822B1204602B0F0BC7047A8
:10B93800C2B9D3F82011D3F858210029F8D0002A29
:10B9480014BF0F2000200CEB060307EB8303002233
:10B958005A6102B0F0BC704710207047112002B045
:10B96800F0BC70470F20EEE77C3300200379054ACE
:10B9780003EBC30302EB83035869003018BF0120AF
:10B98800704700BF7C33002001F06043B3F1005FD3
:10B998007BD1F0B40579454EEF007B1906EB8303A4
:10B9A80082B05B6823B104684FF4047CC4F808C310
:10B9B8007C1906EB8404D4F818C0BCF1000F3DD103
:10B9C8000368A261C3F810C1D3F81001019001986F
:10B9D800C3F844C1D3F8440100900120E160C4F8E1
:10B9E8001CC0009CC3F83415C3F8382518607A19B0
:10B9F80006EB820252685AB14FF40472C3F804236A
:10BA0800002002B0F0BC7047002942D1002846D17E
:10BA1800D3F81021D3F84411D3F82401002AF3D025
:10BA28003D4400284FF0000306EB850614BF0320B1
:10BA380018469942B36118BF0F20E2E7D4F81CC03A
:10BA4800BCF1000F07D013B303684FF40472C3F8B6
:10BA580004231120D5E703682161C3F810C1D3F886
:10BA6800100101900198C3F844C1D3F84401009033
:10BA78000098C3F83415C3F83825D3F80012E261EA
:10BA880041F02001C3F80012B1E7102070471120DF
:10BA9800B7E73D4406EB85060F20B261B1E73D44A8
:10BAA80006EB85060320B161ABE700BF7C330020BD
:10BAB800032811D8012A0BD0012919D00ED3022945
:10BAC8000AD10E4B00EB4000034400205A70704727
